{
  "_format": "hh-sol-artifact-1",
  "contractName": "Membership",
  "sourceName": "contracts/token presets/ERC1155/Membership.sol",
  "abi": [
    {
      "inputs": [],
      "stateMutability": "nonpayable",
      "type": "constructor"
    },
    {
      "anonymous": false,
      "inputs": [
        {
          "indexed": true,
          "internalType": "address",
          "name": "account",
          "type": "address"
        },
        {
          "indexed": true,
          "internalType": "address",
          "name": "operator",
          "type": "address"
        },
        {
          "indexed": false,
          "internalType": "bool",
          "name": "approved",
          "type": "bool"
        }
      ],
      "name": "ApprovalForAll",
      "type": "event"
    },
    {
      "anonymous": false,
      "inputs": [
        {
          "indexed": false,
          "internalType": "address",
          "name": "inviter",
          "type": "address"
        },
        {
          "indexed": false,
          "internalType": "address",
          "name": "newMember",
          "type": "address"
        }
      ],
      "name": "LogSafeMint",
      "type": "event"
    },
    {
      "anonymous": false,
      "inputs": [
        {
          "indexed": true,
          "internalType": "address",
          "name": "previousOwner",
          "type": "address"
        },
        {
          "indexed": true,
          "internalType": "address",
          "name": "newOwner",
          "type": "address"
        }
      ],
      "name": "OwnershipTransferred",
      "type": "event"
    },
    {
      "anonymous": false,
      "inputs": [
        {
          "indexed": false,
          "internalType": "address",
          "name": "account",
          "type": "address"
        }
      ],
      "name": "Paused",
      "type": "event"
    },
    {
      "anonymous": false,
      "inputs": [
        {
          "indexed": true,
          "internalType": "address",
          "name": "operator",
          "type": "address"
        },
        {
          "indexed": true,
          "internalType": "address",
          "name": "from",
          "type": "address"
        },
        {
          "indexed": true,
          "internalType": "address",
          "name": "to",
          "type": "address"
        },
        {
          "indexed": false,
          "internalType": "uint256[]",
          "name": "ids",
          "type": "uint256[]"
        },
        {
          "indexed": false,
          "internalType": "uint256[]",
          "name": "values",
          "type": "uint256[]"
        }
      ],
      "name": "TransferBatch",
      "type": "event"
    },
    {
      "anonymous": false,
      "inputs": [
        {
          "indexed": true,
          "internalType": "address",
          "name": "operator",
          "type": "address"
        },
        {
          "indexed": true,
          "internalType": "address",
          "name": "from",
          "type": "address"
        },
        {
          "indexed": true,
          "internalType": "address",
          "name": "to",
          "type": "address"
        },
        {
          "indexed": false,
          "internalType": "uint256",
          "name": "id",
          "type": "uint256"
        },
        {
          "indexed": false,
          "internalType": "uint256",
          "name": "value",
          "type": "uint256"
        }
      ],
      "name": "TransferSingle",
      "type": "event"
    },
    {
      "anonymous": false,
      "inputs": [
        {
          "indexed": false,
          "internalType": "string",
          "name": "value",
          "type": "string"
        },
        {
          "indexed": true,
          "internalType": "uint256",
          "name": "id",
          "type": "uint256"
        }
      ],
      "name": "URI",
      "type": "event"
    },
    {
      "anonymous": false,
      "inputs": [
        {
          "indexed": false,
          "internalType": "address",
          "name": "account",
          "type": "address"
        }
      ],
      "name": "Unpaused",
      "type": "event"
    },
    {
      "inputs": [
        {
          "internalType": "address",
          "name": "account",
          "type": "address"
        },
        {
          "internalType": "uint256",
          "name": "id",
          "type": "uint256"
        }
      ],
      "name": "balanceOf",
      "outputs": [
        {
          "internalType": "uint256",
          "name": "",
          "type": "uint256"
        }
      ],
      "stateMutability": "view",
      "type": "function"
    },
    {
      "inputs": [
        {
          "internalType": "address[]",
          "name": "accounts",
          "type": "address[]"
        },
        {
          "internalType": "uint256[]",
          "name": "ids",
          "type": "uint256[]"
        }
      ],
      "name": "balanceOfBatch",
      "outputs": [
        {
          "internalType": "uint256[]",
          "name": "",
          "type": "uint256[]"
        }
      ],
      "stateMutability": "view",
      "type": "function"
    },
    {
      "inputs": [],
      "name": "getMsgSenderBalance",
      "outputs": [
        {
          "internalType": "uint256",
          "name": "",
          "type": "uint256"
        }
      ],
      "stateMutability": "view",
      "type": "function"
    },
    {
      "inputs": [
        {
          "internalType": "address",
          "name": "account",
          "type": "address"
        },
        {
          "internalType": "address",
          "name": "operator",
          "type": "address"
        }
      ],
      "name": "isApprovedForAll",
      "outputs": [
        {
          "internalType": "bool",
          "name": "",
          "type": "bool"
        }
      ],
      "stateMutability": "view",
      "type": "function"
    },
    {
      "inputs": [
        {
          "internalType": "address",
          "name": "account",
          "type": "address"
        }
      ],
      "name": "mint",
      "outputs": [],
      "stateMutability": "nonpayable",
      "type": "function"
    },
    {
      "inputs": [],
      "name": "owner",
      "outputs": [
        {
          "internalType": "address",
          "name": "",
          "type": "address"
        }
      ],
      "stateMutability": "view",
      "type": "function"
    },
    {
      "inputs": [],
      "name": "pause",
      "outputs": [],
      "stateMutability": "nonpayable",
      "type": "function"
    },
    {
      "inputs": [],
      "name": "paused",
      "outputs": [
        {
          "internalType": "bool",
          "name": "",
          "type": "bool"
        }
      ],
      "stateMutability": "view",
      "type": "function"
    },
    {
      "inputs": [],
      "name": "renounceOwnership",
      "outputs": [],
      "stateMutability": "nonpayable",
      "type": "function"
    },
    {
      "inputs": [
        {
          "internalType": "address",
          "name": "from",
          "type": "address"
        },
        {
          "internalType": "address",
          "name": "to",
          "type": "address"
        },
        {
          "internalType": "uint256[]",
          "name": "ids",
          "type": "uint256[]"
        },
        {
          "internalType": "uint256[]",
          "name": "amounts",
          "type": "uint256[]"
        },
        {
          "internalType": "bytes",
          "name": "data",
          "type": "bytes"
        }
      ],
      "name": "safeBatchTransferFrom",
      "outputs": [],
      "stateMutability": "nonpayable",
      "type": "function"
    },
    {
      "inputs": [
        {
          "internalType": "address",
          "name": "",
          "type": "address"
        },
        {
          "internalType": "address",
          "name": "",
          "type": "address"
        },
        {
          "internalType": "uint256",
          "name": "",
          "type": "uint256"
        },
        {
          "internalType": "uint256",
          "name": "",
          "type": "uint256"
        },
        {
          "internalType": "bytes",
          "name": "",
          "type": "bytes"
        }
      ],
      "name": "safeTransferFrom",
      "outputs": [],
      "stateMutability": "pure",
      "type": "function"
    },
    {
      "inputs": [
        {
          "internalType": "address",
          "name": "operator",
          "type": "address"
        },
        {
          "internalType": "bool",
          "name": "approved",
          "type": "bool"
        }
      ],
      "name": "setApprovalForAll",
      "outputs": [],
      "stateMutability": "nonpayable",
      "type": "function"
    },
    {
      "inputs": [
        {
          "internalType": "string",
          "name": "newUri",
          "type": "string"
        }
      ],
      "name": "setUri",
      "outputs": [
        {
          "internalType": "string",
          "name": "",
          "type": "string"
        }
      ],
      "stateMutability": "nonpayable",
      "type": "function"
    },
    {
      "inputs": [
        {
          "internalType": "bytes4",
          "name": "interfaceId",
          "type": "bytes4"
        }
      ],
      "name": "supportsInterface",
      "outputs": [
        {
          "internalType": "bool",
          "name": "",
          "type": "bool"
        }
      ],
      "stateMutability": "view",
      "type": "function"
    },
    {
      "inputs": [
        {
          "internalType": "address",
          "name": "newOwner",
          "type": "address"
        }
      ],
      "name": "transferOwnership",
      "outputs": [],
      "stateMutability": "nonpayable",
      "type": "function"
    },
    {
      "inputs": [],
      "name": "unpause",
      "outputs": [],
      "stateMutability": "nonpayable",
      "type": "function"
    },
    {
      "inputs": [
        {
          "internalType": "uint256",
          "name": "",
          "type": "uint256"
        }
      ],
      "name": "uri",
      "outputs": [
        {
          "internalType": "string",
          "name": "",
          "type": "string"
        }
      ],
      "stateMutability": "view",
      "type": "function"
    }
  ],
  "bytecode": "0x6080604052600060045560016005556040518060400160405280600481526020017f3078303000000000000000000000000000000000000000000000000000000000815250600690805190602001906200005b92919062000759565b503480156200006957600080fd5b50604051806020016040528060008152506200008b816200017760201b60201c565b50620000ac620000a06200019360201b60201c565b6200019b60201b60201c565b6000600360146101000a81548160ff021916908315150217905550620001713360045460055460068054620000e190620008c9565b80601f01602080910402602001604051908101604052809291908181526020018280546200010f90620008c9565b8015620001605780601f10620001345761010080835404028352916020019162000160565b820191906000526020600020905b8154815290600101906020018083116200014257829003601f168201915b50505050506200026160201b60201c565b62000fe1565b80600290805190602001906200018f929190620007ea565b5050565b600033905090565b6000600360009054906101000a900473ffffffffffffffffffffffffffffffffffffffff16905081600360006101000a81548173ffffffffffffffffffffffffffffffffffffffff021916908373ffffffffffffffffffffffffffffffffffffffff1602179055508173ffffffffffffffffffffffffffffffffffffffff168173ffffffffffffffffffffffffffffffffffffffff167f8be0079c531659141344cd1fd0a4f28419497f9722a3daafe3b4186f6b6457e060405160405180910390a35050565b600073ffffffffffffffffffffffffffffffffffffffff168473ffffffffffffffffffffffffffffffffffffffff161415620002d4576040517f08c379a0000000000000000000000000000000000000000000000000000000008152600401620002cb9062000986565b60405180910390fd5b6000620002e66200019360201b60201c565b90506200031f8160008762000301886200042660201b60201c565b62000312886200042660201b60201c565b87620004a760201b60201c565b8260008086815260200190815260200160002060008773ffffffffffffffffffffffffffffffffffffffff1673ffffffffffffffffffffffffffffffffffffffff1681526020019081526020016000206000828254620003809190620009e1565b925050819055508473ffffffffffffffffffffffffffffffffffffffff16600073ffffffffffffffffffffffffffffffffffffffff168273ffffffffffffffffffffffffffffffffffffffff167fc3d58168c5ae7397731d063d5bbf3d657854427343f4c083240f7aacaa2d0f6287876040516200040092919062000a4f565b60405180910390a46200041f816000878787876200051d60201b60201c565b5050505050565b60606000600167ffffffffffffffff81111562000448576200044762000a7c565b5b604051908082528060200260200182016040528015620004775781602001602082028036833780820191505090505b509050828160008151811062000492576200049162000aab565b5b60200260200101818152505080915050919050565b620004b76200072760201b60201c565b15620004fa576040517f08c379a0000000000000000000000000000000000000000000000000000000008152600401620004f19062000b2a565b60405180910390fd5b620005158686868686866200073e60201b62000df61760201c565b505050505050565b620005498473ffffffffffffffffffffffffffffffffffffffff166200074660201b62000dfe1760201c565b156200071f578373ffffffffffffffffffffffffffffffffffffffff1663f23a6e6187878686866040518663ffffffff1660e01b81526004016200059295949392919062000c35565b602060405180830381600087803b158015620005ad57600080fd5b505af1925050508015620005e157506040513d601f19601f82011682018060405250810190620005de919062000d05565b60015b6200069357620005f062000d44565b806308c379a014156200065457506200060862000d9f565b8062000615575062000656565b806040517f08c379a00000000000000000000000000000000000000000000000000000000081526004016200064b919062000e8d565b60405180910390fd5b505b6040517f08c379a00000000000000000000000000000000000000000000000000000000081526004016200068a9062000f27565b60405180910390fd5b63f23a6e6160e01b7bffffffffffffffffffffffffffffffffffffffffffffffffffffffff1916817bffffffffffffffffffffffffffffffffffffffffffffffffffffffff1916146200071d576040517f08c379a0000000000000000000000000000000000000000000000000000000008152600401620007149062000fbf565b60405180910390fd5b505b505050505050565b6000600360149054906101000a900460ff16905090565b505050505050565b600080823b905060008111915050919050565b8280546200076790620008c9565b90600052602060002090601f0160209004810192826200078b5760008555620007d7565b82601f10620007a657805160ff1916838001178555620007d7565b82800160010185558215620007d7579182015b82811115620007d6578251825591602001919060010190620007b9565b5b509050620007e691906200087b565b5090565b828054620007f890620008c9565b90600052602060002090601f0160209004810192826200081c576000855562000868565b82601f106200083757805160ff191683800117855562000868565b8280016001018555821562000868579182015b82811115620008675782518255916020019190600101906200084a565b5b5090506200087791906200087b565b5090565b5b80821115620008965760008160009055506001016200087c565b5090565b7f4e487b7100000000000000000000000000000000000000000000000000000000600052602260045260246000fd5b60006002820490506001821680620008e257607f821691505b60208210811415620008f957620008f86200089a565b5b50919050565b600082825260208201905092915050565b7f455243313135353a206d696e7420746f20746865207a65726f2061646472657360008201527f7300000000000000000000000000000000000000000000000000000000000000602082015250565b60006200096e602183620008ff565b91506200097b8262000910565b604082019050919050565b60006020820190508181036000830152620009a1816200095f565b9050919050565b6000819050919050565b7f4e487b7100000000000000000000000000000000000000000000000000000000600052601160045260246000fd5b6000620009ee82620009a8565b9150620009fb83620009a8565b9250827fffffffffffffffffffffffffffffffffffffffffffffffffffffffffffffffff0382111562000a335762000a32620009b2565b5b828201905092915050565b62000a4981620009a8565b82525050565b600060408201905062000a66600083018562000a3e565b62000a75602083018462000a3e565b9392505050565b7f4e487b7100000000000000000000000000000000000000000000000000000000600052604160045260246000fd5b7f4e487b7100000000000000000000000000000000000000000000000000000000600052603260045260246000fd5b7f5061757361626c653a2070617573656400000000000000000000000000000000600082015250565b600062000b12601083620008ff565b915062000b1f8262000ada565b602082019050919050565b6000602082019050818103600083015262000b458162000b03565b9050919050565b600073ffffffffffffffffffffffffffffffffffffffff82169050919050565b600062000b798262000b4c565b9050919050565b62000b8b8162000b6c565b82525050565b600081519050919050565b600082825260208201905092915050565b60005b8381101562000bcd57808201518184015260208101905062000bb0565b8381111562000bdd576000848401525b50505050565b6000601f19601f8301169050919050565b600062000c018262000b91565b62000c0d818562000b9c565b935062000c1f81856020860162000bad565b62000c2a8162000be3565b840191505092915050565b600060a08201905062000c4c600083018862000b80565b62000c5b602083018762000b80565b62000c6a604083018662000a3e565b62000c79606083018562000a3e565b818103608083015262000c8d818462000bf4565b90509695505050505050565b6000604051905090565b600080fd5b60007fffffffff0000000000000000000000000000000000000000000000000000000082169050919050565b62000cdf8162000ca8565b811462000ceb57600080fd5b50565b60008151905062000cff8162000cd4565b92915050565b60006020828403121562000d1e5762000d1d62000ca3565b5b600062000d2e8482850162000cee565b91505092915050565b60008160e01c9050919050565b600060033d111562000d665760046000803e62000d6360005162000d37565b90505b90565b62000d748262000be3565b810181811067ffffffffffffffff8211171562000d965762000d9562000a7c565b5b80604052505050565b600060443d101562000db15762000e3e565b62000dbb62000c99565b60043d036004823e80513d602482011167ffffffffffffffff8211171562000de557505062000e3e565b808201805167ffffffffffffffff81111562000e05575050505062000e3e565b80602083010160043d03850181111562000e2457505050505062000e3e565b62000e358260200185018662000d69565b82955050505050505b90565b600081519050919050565b600062000e598262000e41565b62000e658185620008ff565b935062000e7781856020860162000bad565b62000e828162000be3565b840191505092915050565b6000602082019050818103600083015262000ea9818462000e4c565b905092915050565b7f455243313135353a207472616e7366657220746f206e6f6e204552433131353560008201527f526563656976657220696d706c656d656e746572000000000000000000000000602082015250565b600062000f0f603483620008ff565b915062000f1c8262000eb1565b604082019050919050565b6000602082019050818103600083015262000f428162000f00565b9050919050565b7f455243313135353a204552433131353552656365697665722072656a6563746560008201527f6420746f6b656e73000000000000000000000000000000000000000000000000602082015250565b600062000fa7602883620008ff565b915062000fb48262000f49565b604082019050919050565b6000602082019050818103600083015262000fda8162000f98565b9050919050565b6134bc8062000ff16000396000f3fe608060405234801561001057600080fd5b506004361061010a5760003560e01c80636a627842116100a25780639b642de1116100715780639b642de11461027f578063a22cb465146102af578063e985e9c5146102cb578063f242432a146102fb578063f2fde38b146103175761010a565b80636a62784214610231578063715018a61461024d5780638456cb59146102575780638da5cb5b146102615761010a565b80632eb2c2d6116100de5780632eb2c2d6146101bd5780633f4ba83a146101d95780634e1273f4146101e35780635c975abb146102135761010a565b8062fdd58e1461010f57806301ffc9a71461013f5780630e89341c1461016f5780632dfe96941461019f575b600080fd5b61012960048036038101906101249190611cb0565b610333565b6040516101369190611cff565b60405180910390f35b61015960048036038101906101549190611d72565b6103fc565b6040516101669190611dba565b60405180910390f35b61018960048036038101906101849190611dd5565b6104de565b6040516101969190611e9b565b60405180910390f35b6101a7610572565b6040516101b49190611cff565b60405180910390f35b6101d760048036038101906101d291906120ba565b610585565b005b6101e1610626565b005b6101fd60048036038101906101f8919061224c565b6106ac565b60405161020a9190612382565b60405180910390f35b61021b6107c5565b6040516102289190611dba565b60405180910390f35b61024b600480360381019061024691906123a4565b6107dc565b005b610255610a86565b005b61025f610b0e565b005b610269610b94565b60405161027691906123e0565b60405180910390f35b6102996004803603810190610294919061249c565b610bbe565b6040516102a69190611e9b565b60405180910390f35b6102c960048036038101906102c49190612511565b610c19565b005b6102e560048036038101906102e09190612551565b610c2f565b6040516102f29190611dba565b60405180910390f35b61031560048036038101906103109190612591565b610cc3565b005b610331600480360381019061032c91906123a4565b610cfe565b005b60008073ffffffffffffffffffffffffffffffffffffffff168373ffffffffffffffffffffffffffffffffffffffff1614156103a4576040517f08c379a000000000000000000000000000000000000000000000000000000000815260040161039b9061269a565b60405180910390fd5b60008083815260200190815260200160002060008473ffffffffffffffffffffffffffffffffffffffff1673ffffffffffffffffffffffffffffffffffffffff16815260200190815260200160002054905092915050565b60007fd9b67a26000000000000000000000000000000000000000000000000000000007bffffffffffffffffffffffffffffffffffffffffffffffffffffffff1916827bffffffffffffffffffffffffffffffffffffffffffffffffffffffff191614806104c757507f0e89341c000000000000000000000000000000000000000000000000000000007bffffffffffffffffffffffffffffffffffffffffffffffffffffffff1916827bffffffffffffffffffffffffffffffffffffffffffffffffffffffff1916145b806104d757506104d682610e11565b5b9050919050565b6060600280546104ed906126e9565b80601f0160208091040260200160405190810160405280929190818152602001828054610519906126e9565b80156105665780601f1061053b57610100808354040283529160200191610566565b820191906000526020600020905b81548152906001019060200180831161054957829003601f168201915b50505050509050919050565b600061058033600454610333565b905090565b61058d610e7b565b73ffffffffffffffffffffffffffffffffffffffff168573ffffffffffffffffffffffffffffffffffffffff1614806105d357506105d2856105cd610e7b565b610c2f565b5b610612576040517f08c379a00000000000000000000000000000000000000000000000000000000081526004016106099061278d565b60405180910390fd5b61061f8585858585610e83565b5050505050565b61062e610e7b565b73ffffffffffffffffffffffffffffffffffffffff1661064c610b94565b73ffffffffffffffffffffffffffffffffffffffff16146106a2576040517f08c379a0000000000000000000000000000000000000000000000000000000008152600401610699906127f9565b60405180910390fd5b6106aa611197565b565b606081518351146106f2576040517f08c379a00000000000000000000000000000000000000000000000000000000081526004016106e99061288b565b60405180910390fd5b6000835167ffffffffffffffff81111561070f5761070e611ec2565b5b60405190808252806020026020018201604052801561073d5781602001602082028036833780820191505090505b50905060005b84518110156107ba5761078a858281518110610762576107616128ab565b5b602002602001015185838151811061077d5761077c6128ab565b5b6020026020010151610333565b82828151811061079d5761079c6128ab565b5b602002602001018181525050806107b390612909565b9050610743565b508091505092915050565b6000600360149054906101000a900460ff16905090565b60003073ffffffffffffffffffffffffffffffffffffffff1662fdd58e3360006040518363ffffffff1660e01b8152600401610819929190612997565b60206040518083038186803b15801561083157600080fd5b505afa158015610845573d6000803e3d6000fd5b505050506040513d601f19601f8201168201806040525081019061086991906129d5565b14156108aa576040517f08c379a00000000000000000000000000000000000000000000000000000000081526004016108a190612a74565b60405180910390fd5b8060013073ffffffffffffffffffffffffffffffffffffffff1662fdd58e8360006040518363ffffffff1660e01b81526004016108e8929190612997565b60206040518083038186803b15801561090057600080fd5b505afa158015610914573d6000803e3d6000fd5b505050506040513d601f19601f8201168201806040525081019061093891906129d5565b10610978576040517f08c379a000000000000000000000000000000000000000000000000000000000815260040161096f90612b06565b60405180910390fd5b600073ffffffffffffffffffffffffffffffffffffffff168273ffffffffffffffffffffffffffffffffffffffff1614156109e8576040517f08c379a00000000000000000000000000000000000000000000000000000000081526004016109df90612b98565b60405180910390fd5b610a8282600454600554600680546109ff906126e9565b80601f0160208091040260200160405190810160405280929190818152602001828054610a2b906126e9565b8015610a785780601f10610a4d57610100808354040283529160200191610a78565b820191906000526020600020905b815481529060010190602001808311610a5b57829003601f168201915b5050505050611239565b5050565b610a8e610e7b565b73ffffffffffffffffffffffffffffffffffffffff16610aac610b94565b73ffffffffffffffffffffffffffffffffffffffff1614610b02576040517f08c379a0000000000000000000000000000000000000000000000000000000008152600401610af9906127f9565b60405180910390fd5b610b0c60006113cf565b565b610b16610e7b565b73ffffffffffffffffffffffffffffffffffffffff16610b34610b94565b73ffffffffffffffffffffffffffffffffffffffff1614610b8a576040517f08c379a0000000000000000000000000000000000000000000000000000000008152600401610b81906127f9565b60405180910390fd5b610b92611495565b565b6000600360009054906101000a900473ffffffffffffffffffffffffffffffffffffffff16905090565b6060610bc86107c5565b15610c08576040517f08c379a0000000000000000000000000000000000000000000000000000000008152600401610bff90612c04565b60405180910390fd5b610c1182611538565b819050919050565b610c2b610c24610e7b565b8383611552565b5050565b6000600160008473ffffffffffffffffffffffffffffffffffffffff1673ffffffffffffffffffffffffffffffffffffffff16815260200190815260200160002060008373ffffffffffffffffffffffffffffffffffffffff1673ffffffffffffffffffffffffffffffffffffffff16815260200190815260200160002060009054906101000a900460ff16905092915050565b6040517f08c379a0000000000000000000000000000000000000000000000000000000008152600401610cf590612c96565b60405180910390fd5b610d06610e7b565b73ffffffffffffffffffffffffffffffffffffffff16610d24610b94565b73ffffffffffffffffffffffffffffffffffffffff1614610d7a576040517f08c379a0000000000000000000000000000000000000000000000000000000008152600401610d71906127f9565b60405180910390fd5b600073ffffffffffffffffffffffffffffffffffffffff168173ffffffffffffffffffffffffffffffffffffffff161415610dea576040517f08c379a0000000000000000000000000000000000000000000000000000000008152600401610de190612d28565b60405180910390fd5b610df3816113cf565b50565b505050505050565b600080823b905060008111915050919050565b60007f01ffc9a7000000000000000000000000000000000000000000000000000000007bffffffffffffffffffffffffffffffffffffffffffffffffffffffff1916827bffffffffffffffffffffffffffffffffffffffffffffffffffffffff1916149050919050565b600033905090565b8151835114610ec7576040517f08c379a0000000000000000000000000000000000000000000000000000000008152600401610ebe90612dba565b60405180910390fd5b600073ffffffffffffffffffffffffffffffffffffffff168473ffffffffffffffffffffffffffffffffffffffff161415610f37576040517f08c379a0000000000000000000000000000000000000000000000000000000008152600401610f2e90612e4c565b60405180910390fd5b6000610f41610e7b565b9050610f518187878787876116bf565b60005b8451811015611102576000858281518110610f7257610f716128ab565b5b602002602001015190506000858381518110610f9157610f906128ab565b5b60200260200101519050600080600084815260200190815260200160002060008b73ffffffffffffffffffffffffffffffffffffffff1673ffffffffffffffffffffffffffffffffffffffff16815260200190815260200160002054905081811015611032576040517f08c379a000000000000000000000000000000000000000000000000000000000815260040161102990612ede565b60405180910390fd5b81810360008085815260200190815260200160002060008c73ffffffffffffffffffffffffffffffffffffffff1673ffffffffffffffffffffffffffffffffffffffff168152602001908152602001600020819055508160008085815260200190815260200160002060008b73ffffffffffffffffffffffffffffffffffffffff1673ffffffffffffffffffffffffffffffffffffffff16815260200190815260200160002060008282546110e79190612efe565b92505081905550505050806110fb90612909565b9050610f54565b508473ffffffffffffffffffffffffffffffffffffffff168673ffffffffffffffffffffffffffffffffffffffff168273ffffffffffffffffffffffffffffffffffffffff167f4a39dc06d4c0dbc64b70af90fd698a233a518aa5d07e595d983b8c0526c8f7fb8787604051611179929190612f54565b60405180910390a461118f81878787878761171d565b505050505050565b61119f6107c5565b6111de576040517f08c379a00000000000000000000000000000000000000000000000000000000081526004016111d590612fd7565b60405180910390fd5b6000600360146101000a81548160ff0219169083151502179055507f5db9ee0a495bf2e6ff9c91a7834c1ba4fdd244a5e8aa4e537bd38aeae4b073aa611222610e7b565b60405161122f91906123e0565b60405180910390a1565b600073ffffffffffffffffffffffffffffffffffffffff168473ffffffffffffffffffffffffffffffffffffffff1614156112a9576040517f08c379a00000000000000000000000000000000000000000000000000000000081526004016112a090613069565b60405180910390fd5b60006112b3610e7b565b90506112d4816000876112c588611904565b6112ce88611904565b876116bf565b8260008086815260200190815260200160002060008773ffffffffffffffffffffffffffffffffffffffff1673ffffffffffffffffffffffffffffffffffffffff16815260200190815260200160002060008282546113339190612efe565b925050819055508473ffffffffffffffffffffffffffffffffffffffff16600073ffffffffffffffffffffffffffffffffffffffff168273ffffffffffffffffffffffffffffffffffffffff167fc3d58168c5ae7397731d063d5bbf3d657854427343f4c083240f7aacaa2d0f6287876040516113b1929190613089565b60405180910390a46113c88160008787878761197e565b5050505050565b6000600360009054906101000a900473ffffffffffffffffffffffffffffffffffffffff16905081600360006101000a81548173ffffffffffffffffffffffffffffffffffffffff021916908373ffffffffffffffffffffffffffffffffffffffff1602179055508173ffffffffffffffffffffffffffffffffffffffff168173ffffffffffffffffffffffffffffffffffffffff167f8be0079c531659141344cd1fd0a4f28419497f9722a3daafe3b4186f6b6457e060405160405180910390a35050565b61149d6107c5565b156114dd576040517f08c379a00000000000000000000000000000000000000000000000000000000081526004016114d490612c04565b60405180910390fd5b6001600360146101000a81548160ff0219169083151502179055507f62e78cea01bee320cd4e420270b5ea74000d11b0c9f74754ebdbfc544b05a258611521610e7b565b60405161152e91906123e0565b60405180910390a1565b806002908051906020019061154e929190611b65565b5050565b8173ffffffffffffffffffffffffffffffffffffffff168373ffffffffffffffffffffffffffffffffffffffff1614156115c1576040517f08c379a00000000000000000000000000000000000000000000000000000000081526004016115b890613124565b60405180910390fd5b80600160008573ffffffffffffffffffffffffffffffffffffffff1673ffffffffffffffffffffffffffffffffffffffff16815260200190815260200160002060008473ffffffffffffffffffffffffffffffffffffffff1673ffffffffffffffffffffffffffffffffffffffff16815260200190815260200160002060006101000a81548160ff0219169083151502179055508173ffffffffffffffffffffffffffffffffffffffff168373ffffffffffffffffffffffffffffffffffffffff167f17307eab39ab6107e8899845ad3d59bd9653f200f220920489ca2b5937696c31836040516116b29190611dba565b60405180910390a3505050565b6116c76107c5565b15611707576040517f08c379a00000000000000000000000000000000000000000000000000000000081526004016116fe90612c04565b60405180910390fd5b611715868686868686610df6565b505050505050565b61173c8473ffffffffffffffffffffffffffffffffffffffff16610dfe565b156118fc578373ffffffffffffffffffffffffffffffffffffffff1663bc197c8187878686866040518663ffffffff1660e01b8152600401611782959493929190613199565b602060405180830381600087803b15801561179c57600080fd5b505af19250505080156117cd57506040513d601f19601f820116820180604052508101906117ca9190613216565b60015b611873576117d9613250565b806308c379a0141561183657506117ee613272565b806117f95750611838565b806040517f08c379a000000000000000000000000000000000000000000000000000000000815260040161182d9190611e9b565b60405180910390fd5b505b6040517f08c379a000000000000000000000000000000000000000000000000000000000815260040161186a9061337a565b60405180910390fd5b63bc197c8160e01b7bffffffffffffffffffffffffffffffffffffffffffffffffffffffff1916817bffffffffffffffffffffffffffffffffffffffffffffffffffffffff1916146118fa576040517f08c379a00000000000000000000000000000000000000000000000000000000081526004016118f19061340c565b60405180910390fd5b505b505050505050565b60606000600167ffffffffffffffff81111561192357611922611ec2565b5b6040519080825280602002602001820160405280156119515781602001602082028036833780820191505090505b5090508281600081518110611969576119686128ab565b5b60200260200101818152505080915050919050565b61199d8473ffffffffffffffffffffffffffffffffffffffff16610dfe565b15611b5d578373ffffffffffffffffffffffffffffffffffffffff1663f23a6e6187878686866040518663ffffffff1660e01b81526004016119e395949392919061342c565b602060405180830381600087803b1580156119fd57600080fd5b505af1925050508015611a2e57506040513d601f19601f82011682018060405250810190611a2b9190613216565b60015b611ad457611a3a613250565b806308c379a01415611a975750611a4f613272565b80611a5a5750611a99565b806040517f08c379a0000000000000000000000000000000000000000000000000000000008152600401611a8e9190611e9b565b60405180910390fd5b505b6040517f08c379a0000000000000000000000000000000000000000000000000000000008152600401611acb9061337a565b60405180910390fd5b63f23a6e6160e01b7bffffffffffffffffffffffffffffffffffffffffffffffffffffffff1916817bffffffffffffffffffffffffffffffffffffffffffffffffffffffff191614611b5b576040517f08c379a0000000000000000000000000000000000000000000000000000000008152600401611b529061340c565b60405180910390fd5b505b505050505050565b828054611b71906126e9565b90600052602060002090601f016020900481019282611b935760008555611bda565b82601f10611bac57805160ff1916838001178555611bda565b82800160010185558215611bda579182015b82811115611bd9578251825591602001919060010190611bbe565b5b509050611be79190611beb565b5090565b5b80821115611c04576000816000905550600101611bec565b5090565b6000604051905090565b600080fd5b600080fd5b600073ffffffffffffffffffffffffffffffffffffffff82169050919050565b6000611c4782611c1c565b9050919050565b611c5781611c3c565b8114611c6257600080fd5b50565b600081359050611c7481611c4e565b92915050565b6000819050919050565b611c8d81611c7a565b8114611c9857600080fd5b50565b600081359050611caa81611c84565b92915050565b60008060408385031215611cc757611cc6611c12565b5b6000611cd585828601611c65565b9250506020611ce685828601611c9b565b9150509250929050565b611cf981611c7a565b82525050565b6000602082019050611d146000830184611cf0565b92915050565b60007fffffffff0000000000000000000000000000000000000000000000000000000082169050919050565b611d4f81611d1a565b8114611d5a57600080fd5b50565b600081359050611d6c81611d46565b92915050565b600060208284031215611d8857611d87611c12565b5b6000611d9684828501611d5d565b91505092915050565b60008115159050919050565b611db481611d9f565b82525050565b6000602082019050611dcf6000830184611dab565b92915050565b600060208284031215611deb57611dea611c12565b5b6000611df984828501611c9b565b91505092915050565b600081519050919050565b600082825260208201905092915050565b60005b83811015611e3c578082015181840152602081019050611e21565b83811115611e4b576000848401525b50505050565b6000601f19601f8301169050919050565b6000611e6d82611e02565b611e778185611e0d565b9350611e87818560208601611e1e565b611e9081611e51565b840191505092915050565b60006020820190508181036000830152611eb58184611e62565b905092915050565b600080fd5b7f4e487b7100000000000000000000000000000000000000000000000000000000600052604160045260246000fd5b611efa82611e51565b810181811067ffffffffffffffff82111715611f1957611f18611ec2565b5b80604052505050565b6000611f2c611c08565b9050611f388282611ef1565b919050565b600067ffffffffffffffff821115611f5857611f57611ec2565b5b602082029050602081019050919050565b600080fd5b6000611f81611f7c84611f3d565b611f22565b90508083825260208201905060208402830185811115611fa457611fa3611f69565b5b835b81811015611fcd5780611fb98882611c9b565b845260208401935050602081019050611fa6565b5050509392505050565b600082601f830112611fec57611feb611ebd565b5b8135611ffc848260208601611f6e565b91505092915050565b600080fd5b600067ffffffffffffffff82111561202557612024611ec2565b5b61202e82611e51565b9050602081019050919050565b82818337600083830152505050565b600061205d6120588461200a565b611f22565b90508281526020810184848401111561207957612078612005565b5b61208484828561203b565b509392505050565b600082601f8301126120a1576120a0611ebd565b5b81356120b184826020860161204a565b91505092915050565b600080600080600060a086880312156120d6576120d5611c12565b5b60006120e488828901611c65565b95505060206120f588828901611c65565b945050604086013567ffffffffffffffff81111561211657612115611c17565b5b61212288828901611fd7565b935050606086013567ffffffffffffffff81111561214357612142611c17565b5b61214f88828901611fd7565b925050608086013567ffffffffffffffff8111156121705761216f611c17565b5b61217c8882890161208c565b9150509295509295909350565b600067ffffffffffffffff8211156121a4576121a3611ec2565b5b602082029050602081019050919050565b60006121c86121c384612189565b611f22565b905080838252602082019050602084028301858111156121eb576121ea611f69565b5b835b8181101561221457806122008882611c65565b8452602084019350506020810190506121ed565b5050509392505050565b600082601f83011261223357612232611ebd565b5b81356122438482602086016121b5565b91505092915050565b6000806040838503121561226357612262611c12565b5b600083013567ffffffffffffffff81111561228157612280611c17565b5b61228d8582860161221e565b925050602083013567ffffffffffffffff8111156122ae576122ad611c17565b5b6122ba85828601611fd7565b9150509250929050565b600081519050919050565b600082825260208201905092915050565b6000819050602082019050919050565b6122f981611c7a565b82525050565b600061230b83836122f0565b60208301905092915050565b6000602082019050919050565b600061232f826122c4565b61233981856122cf565b9350612344836122e0565b8060005b8381101561237557815161235c88826122ff565b975061236783612317565b925050600181019050612348565b5085935050505092915050565b6000602082019050818103600083015261239c8184612324565b905092915050565b6000602082840312156123ba576123b9611c12565b5b60006123c884828501611c65565b91505092915050565b6123da81611c3c565b82525050565b60006020820190506123f560008301846123d1565b92915050565b600067ffffffffffffffff82111561241657612415611ec2565b5b61241f82611e51565b9050602081019050919050565b600061243f61243a846123fb565b611f22565b90508281526020810184848401111561245b5761245a612005565b5b61246684828561203b565b509392505050565b600082601f83011261248357612482611ebd565b5b813561249384826020860161242c565b91505092915050565b6000602082840312156124b2576124b1611c12565b5b600082013567ffffffffffffffff8111156124d0576124cf611c17565b5b6124dc8482850161246e565b91505092915050565b6124ee81611d9f565b81146124f957600080fd5b50565b60008135905061250b816124e5565b92915050565b6000806040838503121561252857612527611c12565b5b600061253685828601611c65565b9250506020612547858286016124fc565b9150509250929050565b6000806040838503121561256857612567611c12565b5b600061257685828601611c65565b925050602061258785828601611c65565b9150509250929050565b600080600080600060a086880312156125ad576125ac611c12565b5b60006125bb88828901611c65565b95505060206125cc88828901611c65565b94505060406125dd88828901611c9b565b93505060606125ee88828901611c9b565b925050608086013567ffffffffffffffff81111561260f5761260e611c17565b5b61261b8882890161208c565b9150509295509295909350565b7f455243313135353a2062616c616e636520717565727920666f7220746865207a60008201527f65726f2061646472657373000000000000000000000000000000000000000000602082015250565b6000612684602b83611e0d565b915061268f82612628565b604082019050919050565b600060208201905081810360008301526126b381612677565b9050919050565b7f4e487b7100000000000000000000000000000000000000000000000000000000600052602260045260246000fd5b6000600282049050600182168061270157607f821691505b60208210811415612715576127146126ba565b5b50919050565b7f455243313135353a207472616e736665722063616c6c6572206973206e6f742060008201527f6f776e6572206e6f7220617070726f7665640000000000000000000000000000602082015250565b6000612777603283611e0d565b91506127828261271b565b604082019050919050565b600060208201905081810360008301526127a68161276a565b9050919050565b7f4f776e61626c653a2063616c6c6572206973206e6f7420746865206f776e6572600082015250565b60006127e3602083611e0d565b91506127ee826127ad565b602082019050919050565b60006020820190508181036000830152612812816127d6565b9050919050565b7f455243313135353a206163636f756e747320616e6420696473206c656e67746860008201527f206d69736d617463680000000000000000000000000000000000000000000000602082015250565b6000612875602983611e0d565b915061288082612819565b604082019050919050565b600060208201905081810360008301526128a481612868565b9050919050565b7f4e487b7100000000000000000000000000000000000000000000000000000000600052603260045260246000fd5b7f4e487b7100000000000000000000000000000000000000000000000000000000600052601160045260246000fd5b600061291482611c7a565b91507fffffffffffffffffffffffffffffffffffffffffffffffffffffffffffffffff821415612947576129466128da565b5b600182019050919050565b6000819050919050565b6000819050919050565b600061298161297c61297784612952565b61295c565b611c7a565b9050919050565b61299181612966565b82525050565b60006040820190506129ac60008301856123d1565b6129b96020830184612988565b9392505050565b6000815190506129cf81611c84565b92915050565b6000602082840312156129eb576129ea611c12565b5b60006129f9848285016129c0565b91505092915050565b7f4f6e6c7920746f6b656e20686f6c646572732063616e20706572666f726d207460008201527f68697320616374696f6e00000000000000000000000000000000000000000000602082015250565b6000612a5e602a83611e0d565b9150612a6982612a02565b604082019050919050565b60006020820190508181036000830152612a8d81612a51565b9050919050565b7f4d656d626572732063616e206f6e6c7920686f6c64206f6e65206d656d62657260008201527f7368697020746f6b656e00000000000000000000000000000000000000000000602082015250565b6000612af0602a83611e0d565b9150612afb82612a94565b604082019050919050565b60006020820190508181036000830152612b1f81612ae3565b9050919050565b7f5a494f4e2e4d454d4245525348494f2e4e46543a3a6d696e743a3a20696e766160008201527f6c696420726563697069656e7400000000000000000000000000000000000000602082015250565b6000612b82602d83611e0d565b9150612b8d82612b26565b604082019050919050565b60006020820190508181036000830152612bb181612b75565b9050919050565b7f5061757361626c653a2070617573656400000000000000000000000000000000600082015250565b6000612bee601083611e0d565b9150612bf982612bb8565b602082019050919050565b60006020820190508181036000830152612c1d81612be1565b9050919050565b7f546869732069732061206d656d656265727368697020746f6b656e207768696360008201527f682063616e2774206265207472616e7366657272656400000000000000000000602082015250565b6000612c80603683611e0d565b9150612c8b82612c24565b604082019050919050565b60006020820190508181036000830152612caf81612c73565b9050919050565b7f4f776e61626c653a206e6577206f776e657220697320746865207a65726f206160008201527f6464726573730000000000000000000000000000000000000000000000000000602082015250565b6000612d12602683611e0d565b9150612d1d82612cb6565b604082019050919050565b60006020820190508181036000830152612d4181612d05565b9050919050565b7f455243313135353a2069647320616e6420616d6f756e7473206c656e6774682060008201527f6d69736d61746368000000000000000000000000000000000000000000000000602082015250565b6000612da4602883611e0d565b9150612daf82612d48565b604082019050919050565b60006020820190508181036000830152612dd381612d97565b9050919050565b7f455243313135353a207472616e7366657220746f20746865207a65726f20616460008201527f6472657373000000000000000000000000000000000000000000000000000000602082015250565b6000612e36602583611e0d565b9150612e4182612dda565b604082019050919050565b60006020820190508181036000830152612e6581612e29565b9050919050565b7f455243313135353a20696e73756666696369656e742062616c616e636520666f60008201527f72207472616e7366657200000000000000000000000000000000000000000000602082015250565b6000612ec8602a83611e0d565b9150612ed382612e6c565b604082019050919050565b60006020820190508181036000830152612ef781612ebb565b9050919050565b6000612f0982611c7a565b9150612f1483611c7a565b9250827fffffffffffffffffffffffffffffffffffffffffffffffffffffffffffffffff03821115612f4957612f486128da565b5b828201905092915050565b60006040820190508181036000830152612f6e8185612324565b90508181036020830152612f828184612324565b90509392505050565b7f5061757361626c653a206e6f7420706175736564000000000000000000000000600082015250565b6000612fc1601483611e0d565b9150612fcc82612f8b565b602082019050919050565b60006020820190508181036000830152612ff081612fb4565b9050919050565b7f455243313135353a206d696e7420746f20746865207a65726f2061646472657360008201527f7300000000000000000000000000000000000000000000000000000000000000602082015250565b6000613053602183611e0d565b915061305e82612ff7565b604082019050919050565b6000602082019050818103600083015261308281613046565b9050919050565b600060408201905061309e6000830185611cf0565b6130ab6020830184611cf0565b9392505050565b7f455243313135353a2073657474696e6720617070726f76616c2073746174757360008201527f20666f722073656c660000000000000000000000000000000000000000000000602082015250565b600061310e602983611e0d565b9150613119826130b2565b604082019050919050565b6000602082019050818103600083015261313d81613101565b9050919050565b600081519050919050565b600082825260208201905092915050565b600061316b82613144565b613175818561314f565b9350613185818560208601611e1e565b61318e81611e51565b840191505092915050565b600060a0820190506131ae60008301886123d1565b6131bb60208301876123d1565b81810360408301526131cd8186612324565b905081810360608301526131e18185612324565b905081810360808301526131f58184613160565b90509695505050505050565b60008151905061321081611d46565b92915050565b60006020828403121561322c5761322b611c12565b5b600061323a84828501613201565b91505092915050565b60008160e01c9050919050565b600060033d111561326f5760046000803e61326c600051613243565b90505b90565b600060443d101561328257613305565b61328a611c08565b60043d036004823e80513d602482011167ffffffffffffffff821117156132b2575050613305565b808201805167ffffffffffffffff8111156132d05750505050613305565b80602083010160043d0385018111156132ed575050505050613305565b6132fc82602001850186611ef1565b82955050505050505b90565b7f455243313135353a207472616e7366657220746f206e6f6e204552433131353560008201527f526563656976657220696d706c656d656e746572000000000000000000000000602082015250565b6000613364603483611e0d565b915061336f82613308565b604082019050919050565b6000602082019050818103600083015261339381613357565b9050919050565b7f455243313135353a204552433131353552656365697665722072656a6563746560008201527f6420746f6b656e73000000000000000000000000000000000000000000000000602082015250565b60006133f6602883611e0d565b91506134018261339a565b604082019050919050565b60006020820190508181036000830152613425816133e9565b9050919050565b600060a08201905061344160008301886123d1565b61344e60208301876123d1565b61345b6040830186611cf0565b6134686060830185611cf0565b818103608083015261347a8184613160565b9050969550505050505056fea264697066735822122037855e4fb8a2598eb9b9c7874ee508b27e1efcc3aec6d34b9dec1fcf29adaca164736f6c63430008090033",
  "linkReferences": {},
  "deployedLinkReferences": {}
}