{
  "_format": "hh-sol-artifact-1",
  "contractName": "ERC1155TokenShop",
  "sourceName": "contracts/marketplace/ERC1155TokenShop.sol",
  "abi": [
    {
      "inputs": [
        {
          "internalType": "address",
          "name": "owner",
          "type": "address"
        },
        {
          "internalType": "contract Membership",
          "name": "membership",
          "type": "address"
        },
        {
          "internalType": "contract ERC1155",
          "name": "tokenContract",
          "type": "address"
        },
        {
          "internalType": "contract IERC20",
          "name": "tokenUsedForPayement",
          "type": "address"
        },
        {
          "internalType": "uint256",
          "name": "price",
          "type": "uint256"
        }
      ],
      "stateMutability": "nonpayable",
      "type": "constructor"
    },
    {
      "anonymous": false,
      "inputs": [
        {
          "indexed": false,
          "internalType": "address",
          "name": "submitter",
          "type": "address"
        },
        {
          "indexed": false,
          "internalType": "uint256",
          "name": "amount",
          "type": "uint256"
        }
      ],
      "name": "CapitalWithdrawal",
      "type": "event"
    },
    {
      "anonymous": false,
      "inputs": [
        {
          "indexed": false,
          "internalType": "address",
          "name": "submitter",
          "type": "address"
        },
        {
          "indexed": false,
          "internalType": "uint256",
          "name": "newPrice",
          "type": "uint256"
        }
      ],
      "name": "PriceChanged",
      "type": "event"
    },
    {
      "anonymous": false,
      "inputs": [
        {
          "indexed": false,
          "internalType": "address",
          "name": "shopAddress",
          "type": "address"
        },
        {
          "indexed": false,
          "internalType": "address",
          "name": "owner",
          "type": "address"
        },
        {
          "indexed": false,
          "internalType": "contract Membership",
          "name": "membership",
          "type": "address"
        },
        {
          "indexed": false,
          "internalType": "contract ERC1155",
          "name": "tokenContract",
          "type": "address"
        },
        {
          "indexed": false,
          "internalType": "contract IERC20",
          "name": "tokenUsedForPayement",
          "type": "address"
        },
        {
          "indexed": false,
          "internalType": "uint256",
          "name": "price",
          "type": "uint256"
        }
      ],
      "name": "ShopCreated",
      "type": "event"
    },
    {
      "anonymous": false,
      "inputs": [
        {
          "indexed": false,
          "internalType": "address",
          "name": "buyer",
          "type": "address"
        },
        {
          "indexed": false,
          "internalType": "uint256",
          "name": "id",
          "type": "uint256"
        },
        {
          "indexed": false,
          "internalType": "uint256",
          "name": "amount",
          "type": "uint256"
        }
      ],
      "name": "Sold",
      "type": "event"
    },
    {
      "anonymous": false,
      "inputs": [
        {
          "indexed": false,
          "internalType": "address",
          "name": "submitter",
          "type": "address"
        },
        {
          "indexed": false,
          "internalType": "uint256",
          "name": "amount",
          "type": "uint256"
        }
      ],
      "name": "TokenOnSaleWithdrawal",
      "type": "event"
    },
    {
      "inputs": [
        {
          "internalType": "uint256",
          "name": "id",
          "type": "uint256"
        }
      ],
      "name": "getContractBalanceOfToken",
      "outputs": [
        {
          "internalType": "uint256",
          "name": "",
          "type": "uint256"
        }
      ],
      "stateMutability": "view",
      "type": "function"
    },
    {
      "inputs": [],
      "name": "getPrice",
      "outputs": [
        {
          "internalType": "uint256",
          "name": "",
          "type": "uint256"
        }
      ],
      "stateMutability": "view",
      "type": "function"
    },
    {
      "inputs": [],
      "name": "getRaisedCapital",
      "outputs": [
        {
          "internalType": "uint256",
          "name": "raisedCapital",
          "type": "uint256"
        }
      ],
      "stateMutability": "view",
      "type": "function"
    },
    {
      "inputs": [],
      "name": "getShopStatus",
      "outputs": [
        {
          "internalType": "enum IERC1155TokenShop.Status",
          "name": "shopStatus",
          "type": "uint8"
        }
      ],
      "stateMutability": "view",
      "type": "function"
    },
    {
      "inputs": [
        {
          "internalType": "address",
          "name": "",
          "type": "address"
        },
        {
          "internalType": "address",
          "name": "",
          "type": "address"
        },
        {
          "internalType": "uint256[]",
          "name": "",
          "type": "uint256[]"
        },
        {
          "internalType": "uint256[]",
          "name": "",
          "type": "uint256[]"
        },
        {
          "internalType": "bytes",
          "name": "",
          "type": "bytes"
        }
      ],
      "name": "onERC1155BatchReceived",
      "outputs": [
        {
          "internalType": "bytes4",
          "name": "",
          "type": "bytes4"
        }
      ],
      "stateMutability": "nonpayable",
      "type": "function"
    },
    {
      "inputs": [
        {
          "internalType": "address",
          "name": "",
          "type": "address"
        },
        {
          "internalType": "address",
          "name": "",
          "type": "address"
        },
        {
          "internalType": "uint256",
          "name": "",
          "type": "uint256"
        },
        {
          "internalType": "uint256",
          "name": "",
          "type": "uint256"
        },
        {
          "internalType": "bytes",
          "name": "",
          "type": "bytes"
        }
      ],
      "name": "onERC1155Received",
      "outputs": [
        {
          "internalType": "bytes4",
          "name": "",
          "type": "bytes4"
        }
      ],
      "stateMutability": "nonpayable",
      "type": "function"
    },
    {
      "inputs": [
        {
          "internalType": "bytes4",
          "name": "interfaceId",
          "type": "bytes4"
        }
      ],
      "name": "supportsInterface",
      "outputs": [
        {
          "internalType": "bool",
          "name": "",
          "type": "bool"
        }
      ],
      "stateMutability": "view",
      "type": "function"
    },
    {
      "inputs": [
        {
          "internalType": "address",
          "name": "",
          "type": "address"
        },
        {
          "internalType": "uint256",
          "name": "",
          "type": "uint256"
        }
      ],
      "name": "tokensBoughtByBuyer",
      "outputs": [
        {
          "internalType": "uint256",
          "name": "",
          "type": "uint256"
        }
      ],
      "stateMutability": "view",
      "type": "function"
    },
    {
      "inputs": [
        {
          "internalType": "uint256",
          "name": "amount",
          "type": "uint256"
        }
      ],
      "name": "withdrawRaisedCapital",
      "outputs": [
        {
          "internalType": "bool",
          "name": "",
          "type": "bool"
        }
      ],
      "stateMutability": "nonpayable",
      "type": "function"
    },
    {
      "inputs": [
        {
          "internalType": "uint256",
          "name": "id",
          "type": "uint256"
        },
        {
          "internalType": "uint256",
          "name": "amount",
          "type": "uint256"
        },
        {
          "internalType": "bytes",
          "name": "data",
          "type": "bytes"
        }
      ],
      "name": "withdrawTokensOnSale",
      "outputs": [
        {
          "internalType": "bool",
          "name": "",
          "type": "bool"
        },
        {
          "internalType": "uint256",
          "name": "",
          "type": "uint256"
        }
      ],
      "stateMutability": "nonpayable",
      "type": "function"
    }
  ],
  "bytecode": "0x60806040523480156200001157600080fd5b506040516200142338038062001423833981810160405281019062000037919062000328565b836000806101000a81548173ffffffffffffffffffffffffffffffffffffffff021916908373ffffffffffffffffffffffffffffffffffffffff16021790555081600260006101000a81548173ffffffffffffffffffffffffffffffffffffffff021916908373ffffffffffffffffffffffffffffffffffffffff16021790555082600160006101000a81548173ffffffffffffffffffffffffffffffffffffffff021916908373ffffffffffffffffffffffffffffffffffffffff160217905550806003819055507f855e55883701532682c21bec3b85df4b8de0bdf933156c28d177cf1fc5c04aea308660008054906101000a900473ffffffffffffffffffffffffffffffffffffffff16600160009054906101000a900473ffffffffffffffffffffffffffffffffffffffff16600260009054906101000a900473ffffffffffffffffffffffffffffffffffffffff16600354604051620001a19695949392919062000487565b60405180910390a15050505050620004f4565b600080fd5b600073ffffffffffffffffffffffffffffffffffffffff82169050919050565b6000620001e682620001b9565b9050919050565b620001f881620001d9565b81146200020457600080fd5b50565b6000815190506200021881620001ed565b92915050565b60006200022b82620001d9565b9050919050565b6200023d816200021e565b81146200024957600080fd5b50565b6000815190506200025d8162000232565b92915050565b60006200027082620001d9565b9050919050565b620002828162000263565b81146200028e57600080fd5b50565b600081519050620002a28162000277565b92915050565b6000620002b582620001d9565b9050919050565b620002c781620002a8565b8114620002d357600080fd5b50565b600081519050620002e781620002bc565b92915050565b6000819050919050565b6200030281620002ed565b81146200030e57600080fd5b50565b6000815190506200032281620002f7565b92915050565b600080600080600060a08688031215620003475762000346620001b4565b5b6000620003578882890162000207565b95505060206200036a888289016200024c565b94505060406200037d8882890162000291565b93505060606200039088828901620002d6565b9250506080620003a38882890162000311565b9150509295509295909350565b620003bb81620001d9565b82525050565b6000819050919050565b6000620003ec620003e6620003e084620001b9565b620003c1565b620001b9565b9050919050565b60006200040082620003cb565b9050919050565b60006200041482620003f3565b9050919050565b620004268162000407565b82525050565b60006200043982620003f3565b9050919050565b6200044b816200042c565b82525050565b60006200045e82620003f3565b9050919050565b620004708162000451565b82525050565b6200048181620002ed565b82525050565b600060c0820190506200049e6000830189620003b0565b620004ad6020830188620003b0565b620004bc60408301876200041b565b620004cb606083018662000440565b620004da608083018562000465565b620004e960a083018462000476565b979650505050505050565b610f1f80620005046000396000f3fe608060405234801561001057600080fd5b506004361061009e5760003560e01c8063b0113bf011610066578063b0113bf01461016f578063bc197c81146101a0578063be10494f146101d0578063f23a6e61146101ee578063f7a452411461021e5761009e565b806301ffc9a7146100a35780635b41ab31146100d357806379e15507146100f157806398d5fdca14610121578063a29863901461013f575b600080fd5b6100bd60048036038101906100b891906106de565b61024e565b6040516100ca9190610726565b60405180910390f35b6100db6102c8565b6040516100e8919061075a565b60405180910390f35b61010b600480360381019061010691906107ff565b6102d7565b604051610118919061075a565b60405180910390f35b6101296102fc565b604051610136919061075a565b60405180910390f35b6101596004803603810190610154919061083f565b610306565b604051610166919061075a565b60405180910390f35b610189600480360381019061018491906109b2565b6103c0565b604051610197929190610a21565b60405180910390f35b6101ba60048036038101906101b59190610b12565b6104a7565b6040516101c79190610bf0565b60405180910390f35b6101d86104bc565b6040516101e59190610c82565b60405180910390f35b61020860048036038101906102039190610c9d565b6104d3565b6040516102159190610bf0565b60405180910390f35b6102386004803603810190610233919061083f565b6104e8565b6040516102459190610726565b60405180910390f35b60007f4e2312e0000000000000000000000000000000000000000000000000000000007bffffffffffffffffffffffffffffffffffffffffffffffffffffffff1916827bffffffffffffffffffffffffffffffffffffffffffffffffffffffff191614806102c157506102c0826105f2565b5b9050919050565b60006102d261065c565b905090565b6006602052816000526040600020602052806000526040600020600091509150505481565b6000600354905090565b600080600160009054906101000a900473ffffffffffffffffffffffffffffffffffffffff1673ffffffffffffffffffffffffffffffffffffffff1662fdd58e30856040518363ffffffff1660e01b8152600401610365929190610d43565b60206040518083038186803b15801561037d57600080fd5b505afa158015610391573d6000803e3d6000fd5b505050506040513d601f19601f820116820180604052508101906103b59190610d81565b905080915050919050565b600080600160009054906101000a900473ffffffffffffffffffffffffffffffffffffffff1673ffffffffffffffffffffffffffffffffffffffff1663f242432a3061040a610666565b8888886040518663ffffffff1660e01b815260040161042d959493929190610e36565b600060405180830381600087803b15801561044757600080fd5b505af115801561045b573d6000803e3d6000fd5b505050507ff21cb237576772b55d882a9252b328a259ba6c87ee19d43de24c2a553780227c3385604051610490929190610d43565b60405180910390a160018491509150935093915050565b600063bc197c8160e01b905095945050505050565b6000600560009054906101000a900460ff16905090565b600063f23a6e6160e01b905095945050505050565b6000806104f3610666565b90506104ff818461066e565b600260009054906101000a900473ffffffffffffffffffffffffffffffffffffffff1673ffffffffffffffffffffffffffffffffffffffff1663a9059cbb82856040518363ffffffff1660e01b815260040161055c929190610d43565b602060405180830381600087803b15801561057657600080fd5b505af115801561058a573d6000803e3d6000fd5b505050506040513d601f19601f820116820180604052508101906105ae9190610ebc565b507ffb35b373b75ffde9c4d321bd6402c04d4719e81228f60c40024bdb4aad8d365681846040516105e0929190610d43565b60405180910390a16001915050919050565b60007f01ffc9a7000000000000000000000000000000000000000000000000000000007bffffffffffffffffffffffffffffffffffffffffffffffffffffffff1916827bffffffffffffffffffffffffffffffffffffffffffffffffffffffff1916149050919050565b6000600454905090565b600033905090565b5050565b6000604051905090565b600080fd5b600080fd5b60007fffffffff0000000000000000000000000000000000000000000000000000000082169050919050565b6106bb81610686565b81146106c657600080fd5b50565b6000813590506106d8816106b2565b92915050565b6000602082840312156106f4576106f361067c565b5b6000610702848285016106c9565b91505092915050565b60008115159050919050565b6107208161070b565b82525050565b600060208201905061073b6000830184610717565b92915050565b6000819050919050565b61075481610741565b82525050565b600060208201905061076f600083018461074b565b92915050565b600073ffffffffffffffffffffffffffffffffffffffff82169050919050565b60006107a082610775565b9050919050565b6107b081610795565b81146107bb57600080fd5b50565b6000813590506107cd816107a7565b92915050565b6107dc81610741565b81146107e757600080fd5b50565b6000813590506107f9816107d3565b92915050565b600080604083850312156108165761081561067c565b5b6000610824858286016107be565b9250506020610835858286016107ea565b9150509250929050565b6000602082840312156108555761085461067c565b5b6000610863848285016107ea565b91505092915050565b600080fd5b600080fd5b6000601f19601f8301169050919050565b7f4e487b7100000000000000000000000000000000000000000000000000000000600052604160045260246000fd5b6108bf82610876565b810181811067ffffffffffffffff821117156108de576108dd610887565b5b80604052505050565b60006108f1610672565b90506108fd82826108b6565b919050565b600067ffffffffffffffff82111561091d5761091c610887565b5b61092682610876565b9050602081019050919050565b82818337600083830152505050565b600061095561095084610902565b6108e7565b90508281526020810184848401111561097157610970610871565b5b61097c848285610933565b509392505050565b600082601f8301126109995761099861086c565b5b81356109a9848260208601610942565b91505092915050565b6000806000606084860312156109cb576109ca61067c565b5b60006109d9868287016107ea565b93505060206109ea868287016107ea565b925050604084013567ffffffffffffffff811115610a0b57610a0a610681565b5b610a1786828701610984565b9150509250925092565b6000604082019050610a366000830185610717565b610a43602083018461074b565b9392505050565b600067ffffffffffffffff821115610a6557610a64610887565b5b602082029050602081019050919050565b600080fd5b6000610a8e610a8984610a4a565b6108e7565b90508083825260208201905060208402830185811115610ab157610ab0610a76565b5b835b81811015610ada5780610ac688826107ea565b845260208401935050602081019050610ab3565b5050509392505050565b600082601f830112610af957610af861086c565b5b8135610b09848260208601610a7b565b91505092915050565b600080600080600060a08688031215610b2e57610b2d61067c565b5b6000610b3c888289016107be565b9550506020610b4d888289016107be565b945050604086013567ffffffffffffffff811115610b6e57610b6d610681565b5b610b7a88828901610ae4565b935050606086013567ffffffffffffffff811115610b9b57610b9a610681565b5b610ba788828901610ae4565b925050608086013567ffffffffffffffff811115610bc857610bc7610681565b5b610bd488828901610984565b9150509295509295909350565b610bea81610686565b82525050565b6000602082019050610c056000830184610be1565b92915050565b7f4e487b7100000000000000000000000000000000000000000000000000000000600052602160045260246000fd5b60038110610c4b57610c4a610c0b565b5b50565b6000819050610c5c82610c3a565b919050565b6000610c6c82610c4e565b9050919050565b610c7c81610c61565b82525050565b6000602082019050610c976000830184610c73565b92915050565b600080600080600060a08688031215610cb957610cb861067c565b5b6000610cc7888289016107be565b9550506020610cd8888289016107be565b9450506040610ce9888289016107ea565b9350506060610cfa888289016107ea565b925050608086013567ffffffffffffffff811115610d1b57610d1a610681565b5b610d2788828901610984565b9150509295509295909350565b610d3d81610795565b82525050565b6000604082019050610d586000830185610d34565b610d65602083018461074b565b9392505050565b600081519050610d7b816107d3565b92915050565b600060208284031215610d9757610d9661067c565b5b6000610da584828501610d6c565b91505092915050565b600081519050919050565b600082825260208201905092915050565b60005b83811015610de8578082015181840152602081019050610dcd565b83811115610df7576000848401525b50505050565b6000610e0882610dae565b610e128185610db9565b9350610e22818560208601610dca565b610e2b81610876565b840191505092915050565b600060a082019050610e4b6000830188610d34565b610e586020830187610d34565b610e65604083018661074b565b610e72606083018561074b565b8181036080830152610e848184610dfd565b90509695505050505050565b610e998161070b565b8114610ea457600080fd5b50565b600081519050610eb681610e90565b92915050565b600060208284031215610ed257610ed161067c565b5b6000610ee084828501610ea7565b9150509291505056fea2646970667358221220c7511b6f06431a29483c3b820afc0f612da30a9259e5c2b7889a43742eef7ccb64736f6c63430008090033",
  "linkReferences": {},
  "deployedLinkReferences": {}
}