{
  "_format": "hh-sol-artifact-1",
  "contractName": "ProvaMaster",
  "sourceName": "contracts/token presets/ERC1155/ProvaMaster.sol",
  "abi": [
    {
      "inputs": [],
      "stateMutability": "nonpayable",
      "type": "constructor"
    },
    {
      "anonymous": false,
      "inputs": [
        {
          "indexed": true,
          "internalType": "address",
          "name": "account",
          "type": "address"
        },
        {
          "indexed": true,
          "internalType": "address",
          "name": "operator",
          "type": "address"
        },
        {
          "indexed": false,
          "internalType": "bool",
          "name": "approved",
          "type": "bool"
        }
      ],
      "name": "ApprovalForAll",
      "type": "event"
    },
    {
      "anonymous": false,
      "inputs": [
        {
          "indexed": false,
          "internalType": "address",
          "name": "to",
          "type": "address"
        }
      ],
      "name": "CopyMinted",
      "type": "event"
    },
    {
      "anonymous": false,
      "inputs": [
        {
          "indexed": false,
          "internalType": "uint256",
          "name": "id",
          "type": "uint256"
        }
      ],
      "name": "MasterDeposited",
      "type": "event"
    },
    {
      "anonymous": false,
      "inputs": [
        {
          "indexed": true,
          "internalType": "address",
          "name": "previousOwner",
          "type": "address"
        },
        {
          "indexed": true,
          "internalType": "address",
          "name": "newOwner",
          "type": "address"
        }
      ],
      "name": "OwnershipTransferred",
      "type": "event"
    },
    {
      "anonymous": false,
      "inputs": [
        {
          "indexed": false,
          "internalType": "uint256",
          "name": "id",
          "type": "uint256"
        }
      ],
      "name": "Snapshot",
      "type": "event"
    },
    {
      "anonymous": false,
      "inputs": [
        {
          "indexed": false,
          "internalType": "address",
          "name": "tokenShop",
          "type": "address"
        }
      ],
      "name": "TokenShopSet",
      "type": "event"
    },
    {
      "anonymous": false,
      "inputs": [
        {
          "indexed": true,
          "internalType": "address",
          "name": "operator",
          "type": "address"
        },
        {
          "indexed": true,
          "internalType": "address",
          "name": "from",
          "type": "address"
        },
        {
          "indexed": true,
          "internalType": "address",
          "name": "to",
          "type": "address"
        },
        {
          "indexed": false,
          "internalType": "uint256[]",
          "name": "ids",
          "type": "uint256[]"
        },
        {
          "indexed": false,
          "internalType": "uint256[]",
          "name": "values",
          "type": "uint256[]"
        }
      ],
      "name": "TransferBatch",
      "type": "event"
    },
    {
      "anonymous": false,
      "inputs": [
        {
          "indexed": true,
          "internalType": "address",
          "name": "operator",
          "type": "address"
        },
        {
          "indexed": true,
          "internalType": "address",
          "name": "from",
          "type": "address"
        },
        {
          "indexed": true,
          "internalType": "address",
          "name": "to",
          "type": "address"
        },
        {
          "indexed": false,
          "internalType": "uint256",
          "name": "id",
          "type": "uint256"
        },
        {
          "indexed": false,
          "internalType": "uint256",
          "name": "value",
          "type": "uint256"
        }
      ],
      "name": "TransferSingle",
      "type": "event"
    },
    {
      "anonymous": false,
      "inputs": [
        {
          "indexed": false,
          "internalType": "string",
          "name": "value",
          "type": "string"
        },
        {
          "indexed": true,
          "internalType": "uint256",
          "name": "id",
          "type": "uint256"
        }
      ],
      "name": "URI",
      "type": "event"
    },
    {
      "anonymous": false,
      "inputs": [
        {
          "indexed": false,
          "internalType": "string",
          "name": "newuri",
          "type": "string"
        }
      ],
      "name": "UriSet",
      "type": "event"
    },
    {
      "inputs": [
        {
          "internalType": "address",
          "name": "account",
          "type": "address"
        },
        {
          "internalType": "uint256",
          "name": "id",
          "type": "uint256"
        }
      ],
      "name": "balanceOf",
      "outputs": [
        {
          "internalType": "uint256",
          "name": "",
          "type": "uint256"
        }
      ],
      "stateMutability": "view",
      "type": "function"
    },
    {
      "inputs": [
        {
          "internalType": "address",
          "name": "account",
          "type": "address"
        },
        {
          "internalType": "uint256",
          "name": "id",
          "type": "uint256"
        },
        {
          "internalType": "uint256",
          "name": "snapshotId",
          "type": "uint256"
        }
      ],
      "name": "balanceOfAt",
      "outputs": [
        {
          "internalType": "uint256",
          "name": "",
          "type": "uint256"
        }
      ],
      "stateMutability": "view",
      "type": "function"
    },
    {
      "inputs": [
        {
          "internalType": "address[]",
          "name": "accounts",
          "type": "address[]"
        },
        {
          "internalType": "uint256[]",
          "name": "ids",
          "type": "uint256[]"
        }
      ],
      "name": "balanceOfBatch",
      "outputs": [
        {
          "internalType": "uint256[]",
          "name": "",
          "type": "uint256[]"
        }
      ],
      "stateMutability": "view",
      "type": "function"
    },
    {
      "inputs": [
        {
          "internalType": "address",
          "name": "account",
          "type": "address"
        }
      ],
      "name": "getAccountBalanceOfShareSnapshot",
      "outputs": [
        {
          "components": [
            {
              "internalType": "uint256[]",
              "name": "ids",
              "type": "uint256[]"
            },
            {
              "internalType": "uint256[]",
              "name": "values",
              "type": "uint256[]"
            }
          ],
          "internalType": "struct ERC1155Snapshot.Snapshots",
          "name": "accountBalanceOfSharesSnapshot",
          "type": "tuple"
        }
      ],
      "stateMutability": "view",
      "type": "function"
    },
    {
      "inputs": [],
      "name": "getCurrentSnapshotId",
      "outputs": [
        {
          "internalType": "uint256",
          "name": "currentSnapshotId",
          "type": "uint256"
        }
      ],
      "stateMutability": "view",
      "type": "function"
    },
    {
      "inputs": [
        {
          "internalType": "address",
          "name": "account",
          "type": "address"
        },
        {
          "internalType": "address",
          "name": "operator",
          "type": "address"
        }
      ],
      "name": "isApprovedForAll",
      "outputs": [
        {
          "internalType": "bool",
          "name": "",
          "type": "bool"
        }
      ],
      "stateMutability": "view",
      "type": "function"
    },
    {
      "inputs": [
        {
          "internalType": "address",
          "name": "to",
          "type": "address"
        }
      ],
      "name": "mintCopy",
      "outputs": [],
      "stateMutability": "nonpayable",
      "type": "function"
    },
    {
      "inputs": [],
      "name": "owner",
      "outputs": [
        {
          "internalType": "address",
          "name": "",
          "type": "address"
        }
      ],
      "stateMutability": "view",
      "type": "function"
    },
    {
      "inputs": [],
      "name": "renounceOwnership",
      "outputs": [],
      "stateMutability": "nonpayable",
      "type": "function"
    },
    {
      "inputs": [
        {
          "internalType": "address",
          "name": "from",
          "type": "address"
        },
        {
          "internalType": "address",
          "name": "to",
          "type": "address"
        },
        {
          "internalType": "uint256[]",
          "name": "ids",
          "type": "uint256[]"
        },
        {
          "internalType": "uint256[]",
          "name": "amounts",
          "type": "uint256[]"
        },
        {
          "internalType": "bytes",
          "name": "data",
          "type": "bytes"
        }
      ],
      "name": "safeBatchTransferFrom",
      "outputs": [],
      "stateMutability": "nonpayable",
      "type": "function"
    },
    {
      "inputs": [
        {
          "internalType": "address",
          "name": "from",
          "type": "address"
        },
        {
          "internalType": "address",
          "name": "to",
          "type": "address"
        },
        {
          "internalType": "uint256",
          "name": "id",
          "type": "uint256"
        },
        {
          "internalType": "uint256",
          "name": "amount",
          "type": "uint256"
        },
        {
          "internalType": "bytes",
          "name": "data",
          "type": "bytes"
        }
      ],
      "name": "safeTransferFrom",
      "outputs": [],
      "stateMutability": "nonpayable",
      "type": "function"
    },
    {
      "inputs": [
        {
          "internalType": "address",
          "name": "operator",
          "type": "address"
        },
        {
          "internalType": "bool",
          "name": "approved",
          "type": "bool"
        }
      ],
      "name": "setApprovalForAll",
      "outputs": [],
      "stateMutability": "nonpayable",
      "type": "function"
    },
    {
      "inputs": [
        {
          "internalType": "address",
          "name": "tokenShop",
          "type": "address"
        }
      ],
      "name": "setTokenShop",
      "outputs": [],
      "stateMutability": "nonpayable",
      "type": "function"
    },
    {
      "inputs": [
        {
          "internalType": "string",
          "name": "newuri",
          "type": "string"
        }
      ],
      "name": "setURI",
      "outputs": [],
      "stateMutability": "nonpayable",
      "type": "function"
    },
    {
      "inputs": [],
      "name": "sharesSupply",
      "outputs": [
        {
          "internalType": "uint256",
          "name": "",
          "type": "uint256"
        }
      ],
      "stateMutability": "view",
      "type": "function"
    },
    {
      "inputs": [],
      "name": "snapshot",
      "outputs": [],
      "stateMutability": "nonpayable",
      "type": "function"
    },
    {
      "inputs": [],
      "name": "snapshotOnTransfer",
      "outputs": [
        {
          "internalType": "bool",
          "name": "",
          "type": "bool"
        },
        {
          "internalType": "bytes",
          "name": "",
          "type": "bytes"
        }
      ],
      "stateMutability": "nonpayable",
      "type": "function"
    },
    {
      "inputs": [
        {
          "internalType": "bytes4",
          "name": "interfaceId",
          "type": "bytes4"
        }
      ],
      "name": "supportsInterface",
      "outputs": [
        {
          "internalType": "bool",
          "name": "",
          "type": "bool"
        }
      ],
      "stateMutability": "view",
      "type": "function"
    },
    {
      "inputs": [],
      "name": "totalCopiesSupply",
      "outputs": [
        {
          "internalType": "uint256",
          "name": "",
          "type": "uint256"
        }
      ],
      "stateMutability": "view",
      "type": "function"
    },
    {
      "inputs": [],
      "name": "totalSharesSupply",
      "outputs": [
        {
          "internalType": "uint256",
          "name": "",
          "type": "uint256"
        }
      ],
      "stateMutability": "view",
      "type": "function"
    },
    {
      "inputs": [
        {
          "internalType": "uint256",
          "name": "id",
          "type": "uint256"
        }
      ],
      "name": "totalSupply",
      "outputs": [
        {
          "internalType": "uint256",
          "name": "",
          "type": "uint256"
        }
      ],
      "stateMutability": "view",
      "type": "function"
    },
    {
      "inputs": [
        {
          "internalType": "uint256",
          "name": "id",
          "type": "uint256"
        },
        {
          "internalType": "uint256",
          "name": "snapshotId",
          "type": "uint256"
        }
      ],
      "name": "totalSupplyAt",
      "outputs": [
        {
          "internalType": "uint256",
          "name": "",
          "type": "uint256"
        }
      ],
      "stateMutability": "view",
      "type": "function"
    },
    {
      "inputs": [
        {
          "internalType": "address",
          "name": "newOwner",
          "type": "address"
        }
      ],
      "name": "transferOwnership",
      "outputs": [],
      "stateMutability": "nonpayable",
      "type": "function"
    },
    {
      "inputs": [
        {
          "internalType": "uint256",
          "name": "",
          "type": "uint256"
        }
      ],
      "name": "uri",
      "outputs": [
        {
          "internalType": "string",
          "name": "",
          "type": "string"
        }
      ],
      "stateMutability": "view",
      "type": "function"
    }
  ],
  "bytecode": "0x60806040526103e8600c553480156200001757600080fd5b50600c546040518060400160405280600881526020017f70726f76617572690000000000000000000000000000000000000000000000008152506200006281620000ac60201b60201c565b506200008362000077620000c860201b60201c565b620000d060201b60201c565b620000936200019660201b60201c565b50620000a5816200024960201b60201c565b5062001f7e565b8060029080519060200190620000c49291906200143c565b5050565b600033905090565b6000600760009054906101000a900473ffffffffffffffffffffffffffffffffffffffff16905081600760006101000a81548173ffffffffffffffffffffffffffffffffffffffff021916908373ffffffffffffffffffffffffffffffffffffffff1602179055508173ffffffffffffffffffffffffffffffffffffffff168173ffffffffffffffffffffffffffffffffffffffff167f8be0079c531659141344cd1fd0a4f28419497f9722a3daafe3b4186f6b6457e060405160405180910390a35050565b6060620001f83060006002811115620001b457620001b362001564565b5b60016040518060400160405280600481526020017f30783030000000000000000000000000000000000000000000000000000000008152506200031160201b60201c565b7f26b9db6c8dc710f5c81512fbbe186ee56a1da3a9b26388a98108c40b030a8ea860016040516200022a9190620015ea565b60405180910390a1620002446000620005ba60201b60201c565b905090565b620002b76200025d620000c860201b60201c565b6001600281111562000274576200027362001564565b5b836040518060400160405280600481526020017f30783030000000000000000000000000000000000000000000000000000000008152506200031160201b60201c565b806009600060016002811115620002d357620002d262001564565b5b6002811115620002e857620002e762001564565b5b8152602001908152602001600020600082825462000307919062001636565b9250508190555050565b600073ffffffffffffffffffffffffffffffffffffffff168473ffffffffffffffffffffffffffffffffffffffff16141562000384576040517f08c379a00000000000000000000000000000000000000000000000000000000081526004016200037b906200171a565b60405180910390fd5b600062000396620000c860201b60201c565b90506000600167ffffffffffffffff811115620003b857620003b76200173c565b5b604051908082528060200260200182016040528015620003e75781602001602082028036833780820191505090505b5090506000600167ffffffffffffffff8111156200040a57620004096200173c565b5b604051908082528060200260200182016040528015620004395781602001602082028036833780820191505090505b50905085826000815181106200045457620004536200176b565b5b60200260200101818152505084816000815181106200047857620004776200176b565b5b60200260200101818152505060006200049d8489600086868a6200065660201b60201c565b9050620004b0816200073b60201b60201c565b8560008089815260200190815260200160002060008a73ffffffffffffffffffffffffffffffffffffffff1673ffffffffffffffffffffffffffffffffffffffff168152602001908152602001600020600082825462000511919062001636565b925050819055508773ffffffffffffffffffffffffffffffffffffffff16600073ffffffffffffffffffffffffffffffffffffffff168573ffffffffffffffffffffffffffffffffffffffff167fc3d58168c5ae7397731d063d5bbf3d657854427343f4c083240f7aacaa2d0f628a8a60405162000591929190620017ab565b60405180910390a4620005b08460008a8a8a8a620007da60201b60201c565b5050505050505050565b606060028054620005cb9062001807565b80601f0160208091040260200160405190810160405280929190818152602001828054620005f99062001807565b80156200064a5780601f106200061e576101008083540402835291602001916200064a565b820191906000526020600020905b8154815290600101906020018083116200062c57829003601f168201915b50505050509050919050565b62000660620014cd565b6200066a620014cd565b87816000019073ffffffffffffffffffffffffffffffffffffffff16908173ffffffffffffffffffffffffffffffffffffffff168152505085816020019073ffffffffffffffffffffffffffffffffffffffff16908173ffffffffffffffffffffffffffffffffffffffff168152505086816040019073ffffffffffffffffffffffffffffffffffffffff16908173ffffffffffffffffffffffffffffffffffffffff1681525050848160600181905250838160800181905250828160a00181905250809150509695505050505050565b6200075181620009e460201b620013871760201c565b600073ffffffffffffffffffffffffffffffffffffffff16816020015173ffffffffffffffffffffffffffffffffffffffff1614156200079157620007d7565b60018160600151600081518110620007ae57620007ad6200176b565b5b60200260200101511415620007d557620007cd62000e5160201b60201c565b5050620007d6565b5b5b50565b620008068473ffffffffffffffffffffffffffffffffffffffff166200100c60201b620017251760201c565b15620009dc578373ffffffffffffffffffffffffffffffffffffffff1663f23a6e6187878686866040518663ffffffff1660e01b81526004016200084f95949392919062001926565b602060405180830381600087803b1580156200086a57600080fd5b505af19250505080156200089e57506040513d601f19601f820116820180604052508101906200089b9190620019f6565b60015b6200095057620008ad62001a35565b806308c379a01415620009115750620008c562001a90565b80620008d2575062000913565b806040517f08c379a000000000000000000000000000000000000000000000000000000000815260040162000908919062001b7e565b60405180910390fd5b505b6040517f08c379a0000000000000000000000000000000000000000000000000000000008152600401620009479062001c18565b60405180910390fd5b63f23a6e6160e01b7bffffffffffffffffffffffffffffffffffffffffffffffffffffffff1916817bffffffffffffffffffffffffffffffffffffffffffffffffffffffff191614620009da576040517f08c379a0000000000000000000000000000000000000000000000000000000008152600401620009d19062001cb0565b60405180910390fd5b505b505050505050565b620009fa816200101f60201b620017381760201c565b600073ffffffffffffffffffffffffffffffffffffffff16816020015173ffffffffffffffffffffffffffffffffffffffff16141562000bd4576001816060015151141562000b0857806080015160008151811062000a5e5762000a5d6200176b565b5b602002602001015160056000836060015160008151811062000a855762000a846200176b565b5b60200260200101518152602001908152602001600020600082825462000aac919062001636565b9250508190555062000add816040015162000ad183606001516200102260201b60201c565b6200104f60201b60201c565b62000b0262000af682606001516200102260201b60201c565b620010c560201b60201c565b62000bce565b60005b81606001515181101562000b9d578160800151818151811062000b335762000b326200176b565b5b6020026020010151600560008460600151848151811062000b595762000b586200176b565b5b60200260200101518152602001908152602001600020600082825462000b80919062001636565b92505081905550808062000b949062001cd2565b91505062000b0b565b5062000bb881604001518260600151620010fc60201b60201c565b62000bcd8160600151620011b960201b60201c565b5b62000e4e565b600073ffffffffffffffffffffffffffffffffffffffff16816040015173ffffffffffffffffffffffffffffffffffffffff16141562000dae576001816060015151141562000ce257806080015160008151811062000c385762000c376200176b565b5b602002602001015160056000836060015160008151811062000c5f5762000c5e6200176b565b5b60200260200101518152602001908152602001600020600082825462000c86919062001d20565b9250508190555062000cb7816040015162000cab83606001516200102260201b60201c565b6200104f60201b60201c565b62000cdc62000cd082606001516200102260201b60201c565b620010c560201b60201c565b62000da8565b60005b81606001515181101562000d77578160800151818151811062000d0d5762000d0c6200176b565b5b6020026020010151600560008460600151848151811062000d335762000d326200176b565b5b60200260200101518152602001908152602001600020600082825462000d5a919062001d20565b92505081905550808062000d6e9062001cd2565b91505062000ce5565b5062000d9281602001518260600151620010fc60201b60201c565b62000da78160600151620011b960201b60201c565b5b62000e4d565b6001816060015151141562000e175762000de7816020015162000ddb83606001516200102260201b60201c565b6200104f60201b60201c565b62000e11816040015162000e0583606001516200102260201b60201c565b6200104f60201b60201c565b62000e4c565b62000e3181602001518260600151620010fc60201b60201c565b62000e4b81604001518260600151620010fc60201b60201c565b5b5b5b50565b60006060600062000e67620000c860201b60201c565b9050600062000e93826001600281111562000e875762000e8662001564565b5b6200124760201b60201c565b9050600081101562000edc576040517f08c379a000000000000000000000000000000000000000000000000000000000815260040162000ed39062001df7565b60405180910390fd5b600080600b60009054906101000a900473ffffffffffffffffffffffffffffffffffffffff1673ffffffffffffffffffffffffffffffffffffffff1660405160240162000f299062001e69565b6040516020818303038152906040527f0b72c10f000000000000000000000000000000000000000000000000000000007bffffffffffffffffffffffffffffffffffffffffffffffffffffffff19166020820180517bffffffffffffffffffffffffffffffffffffffffffffffffffffffff838183161783525050505060405162000fb5919062001ecd565b6000604051808303816000865af19150503d806000811462000ff4576040519150601f19603f3d011682016040523d82523d6000602084013e62000ff9565b606091505b5091509150818195509550505050509091565b600080823b905060008111915050919050565b50565b600080826000815181106200103c576200103b6200176b565b5b6020026020010151905080915050919050565b620010c1600360008473ffffffffffffffffffffffffffffffffffffffff1673ffffffffffffffffffffffffffffffffffffffff1681526020019081526020016000206000838152602001908152602001600020620010b584846200124760201b60201c565b6200131360201b60201c565b5050565b620010f960046000838152602001908152602001600020620010ed836200139f60201b60201c565b6200131360201b60201c565b50565b60005b8151811015620011b45760008282815181106200112157620011206200176b565b5b602002602001015190506200119d600360008673ffffffffffffffffffffffffffffffffffffffff1673ffffffffffffffffffffffffffffffffffffffff16815260200190815260200160002060008381526020019081526020016000206200119186846200124760201b60201c565b6200131360201b60201c565b508080620011ab9062001cd2565b915050620010ff565b505050565b60005b815181101562001243576000828281518110620011de57620011dd6200176b565b5b602002602001015190506200122c600460008381526020019081526020016000206200122062001214866200102260201b60201c565b6200139f60201b60201c565b6200131360201b60201c565b5080806200123a9062001cd2565b915050620011bc565b5050565b60008073ffffffffffffffffffffffffffffffffffffffff168373ffffffffffffffffffffffffffffffffffffffff161415620012bb576040517f08c379a0000000000000000000000000000000000000000000000000000000008152600401620012b29062001f5c565b60405180910390fd5b60008083815260200190815260200160002060008473ffffffffffffffffffffffffffffffffffffffff1673ffffffffffffffffffffffffffffffffffffffff16815260200190815260200160002054905092915050565b600062001325620013bc60201b60201c565b9050806200133c84600001620013da60201b60201c565b10156200139a5782600001819080600181540180825580915050600190039060005260206000200160009091909190915055826001018290806001815401808255809150506001900390600052602060002001600090919091909150555b505050565b600060056000838152602001908152602001600020549050919050565b6000620013d560066200142e60201b6200173b1760201c565b905090565b60008082805490501415620013f3576000905062001429565b816001838054905062001407919062001d20565b815481106200141b576200141a6200176b565b5b906000526020600020015490505b919050565b600081600001549050919050565b8280546200144a9062001807565b90600052602060002090601f0160209004810192826200146e5760008555620014ba565b82601f106200148957805160ff1916838001178555620014ba565b82800160010185558215620014ba579182015b82811115620014b95782518255916020019190600101906200149c565b5b509050620014c9919062001545565b5090565b6040518060c00160405280600073ffffffffffffffffffffffffffffffffffffffff168152602001600073ffffffffffffffffffffffffffffffffffffffff168152602001600073ffffffffffffffffffffffffffffffffffffffff1681526020016060815260200160608152602001606081525090565b5b808211156200156057600081600090555060010162001546565b5090565b7f4e487b7100000000000000000000000000000000000000000000000000000000600052602160045260246000fd5b6000819050919050565b6000819050919050565b6000819050919050565b6000620015d2620015cc620015c68462001593565b620015a7565b6200159d565b9050919050565b620015e481620015b1565b82525050565b6000602082019050620016016000830184620015d9565b92915050565b7f4e487b7100000000000000000000000000000000000000000000000000000000600052601160045260246000fd5b600062001643826200159d565b915062001650836200159d565b9250827fffffffffffffffffffffffffffffffffffffffffffffffffffffffffffffffff0382111562001688576200168762001607565b5b828201905092915050565b600082825260208201905092915050565b7f455243313135353a206d696e7420746f20746865207a65726f2061646472657360008201527f7300000000000000000000000000000000000000000000000000000000000000602082015250565b60006200170260218362001693565b91506200170f82620016a4565b604082019050919050565b600060208201905081810360008301526200173581620016f3565b9050919050565b7f4e487b7100000000000000000000000000000000000000000000000000000000600052604160045260246000fd5b7f4e487b7100000000000000000000000000000000000000000000000000000000600052603260045260246000fd5b620017a5816200159d565b82525050565b6000604082019050620017c260008301856200179a565b620017d160208301846200179a565b9392505050565b7f4e487b7100000000000000000000000000000000000000000000000000000000600052602260045260246000fd5b600060028204905060018216806200182057607f821691505b60208210811415620018375762001836620017d8565b5b50919050565b600073ffffffffffffffffffffffffffffffffffffffff82169050919050565b60006200186a826200183d565b9050919050565b6200187c816200185d565b82525050565b600081519050919050565b600082825260208201905092915050565b60005b83811015620018be578082015181840152602081019050620018a1565b83811115620018ce576000848401525b50505050565b6000601f19601f8301169050919050565b6000620018f28262001882565b620018fe81856200188d565b9350620019108185602086016200189e565b6200191b81620018d4565b840191505092915050565b600060a0820190506200193d600083018862001871565b6200194c602083018762001871565b6200195b60408301866200179a565b6200196a60608301856200179a565b81810360808301526200197e8184620018e5565b90509695505050505050565b6000604051905090565b600080fd5b60007fffffffff0000000000000000000000000000000000000000000000000000000082169050919050565b620019d08162001999565b8114620019dc57600080fd5b50565b600081519050620019f081620019c5565b92915050565b60006020828403121562001a0f5762001a0e62001994565b5b600062001a1f84828501620019df565b91505092915050565b60008160e01c9050919050565b600060033d111562001a575760046000803e62001a5460005162001a28565b90505b90565b62001a6582620018d4565b810181811067ffffffffffffffff8211171562001a875762001a866200173c565b5b80604052505050565b600060443d101562001aa25762001b2f565b62001aac6200198a565b60043d036004823e80513d602482011167ffffffffffffffff8211171562001ad657505062001b2f565b808201805167ffffffffffffffff81111562001af6575050505062001b2f565b80602083010160043d03850181111562001b1557505050505062001b2f565b62001b268260200185018662001a5a565b82955050505050505b90565b600081519050919050565b600062001b4a8262001b32565b62001b56818562001693565b935062001b688185602086016200189e565b62001b7381620018d4565b840191505092915050565b6000602082019050818103600083015262001b9a818462001b3d565b905092915050565b7f455243313135353a207472616e7366657220746f206e6f6e204552433131353560008201527f526563656976657220696d706c656d656e746572000000000000000000000000602082015250565b600062001c0060348362001693565b915062001c0d8262001ba2565b604082019050919050565b6000602082019050818103600083015262001c338162001bf1565b9050919050565b7f455243313135353a204552433131353552656365697665722072656a6563746560008201527f6420746f6b656e73000000000000000000000000000000000000000000000000602082015250565b600062001c9860288362001693565b915062001ca58262001c3a565b604082019050919050565b6000602082019050818103600083015262001ccb8162001c89565b9050919050565b600062001cdf826200159d565b91507fffffffffffffffffffffffffffffffffffffffffffffffffffffffffffffffff82141562001d155762001d1462001607565b5b600182019050919050565b600062001d2d826200159d565b915062001d3a836200159d565b92508282101562001d505762001d4f62001607565b5b828203905092915050565b7f5a494f4e2e455243313135354d6173746572546f6b656e53686f703a3a20557360008201527f6572206973206e6f7420616c6c6f77656420746f2063616c6c2074686973206660208201527f756e6374696f6e00000000000000000000000000000000000000000000000000604082015250565b600062001ddf60478362001693565b915062001dec8262001d5b565b606082019050919050565b6000602082019050818103600083015262001e128162001dd0565b9050919050565b7f63616c6c206469766964656e644f6e5368617265735472616e73666572000000600082015250565b600062001e51601d8362001693565b915062001e5e8262001e19565b602082019050919050565b6000602082019050818103600083015262001e848162001e42565b9050919050565b600081905092915050565b600062001ea38262001882565b62001eaf818562001e8b565b935062001ec18185602086016200189e565b80840191505092915050565b600062001edb828462001e96565b915081905092915050565b7f455243313135353a2062616c616e636520717565727920666f7220746865207a60008201527f65726f2061646472657373000000000000000000000000000000000000000000602082015250565b600062001f44602b8362001693565b915062001f518262001ee6565b604082019050919050565b6000602082019050818103600083015262001f778162001f35565b9050919050565b6149608062001f8e6000396000f3fe608060405234801561001057600080fd5b50600436106101575760003560e01c8063715018a6116100c3578063cf6743901161007c578063cf674390146103c5578063d50619cc146103f5578063e5731bd614610413578063e985e9c514610431578063f242432a14610461578063f2fde38b1461047d57610157565b8063715018a6146103175780638aa7a8b0146103215780638da5cb5b146103515780639711715a1461036f578063a22cb46514610379578063bd85b0391461039557610157565b8063306a65a311610115578063306a65a31461024257806331f8f70c1461025e5780634e1273f41461027d5780635439ad86146102ad578063626da068146102cb578063642898d0146102fb57610157565b8062fdd58e1461015c57806301ffc9a71461018c57806302fe5305146101bc5780630e89341c146101d857806322022a29146102085780632eb2c2d614610226575b600080fd5b61017660048036038101906101719190612f56565b610499565b6040516101839190612fa5565b60405180910390f35b6101a660048036038101906101a19190613018565b610562565b6040516101b39190613060565b60405180910390f35b6101d660048036038101906101d191906131c1565b610644565b005b6101f260048036038101906101ed919061320a565b610703565b6040516101ff91906132bf565b60405180910390f35b610210610797565b60405161021d9190612fa5565b60405180910390f35b610240600480360381019061023b919061344a565b6107d7565b005b61025c60048036038101906102579190613519565b610878565b005b610266610938565b60405161027492919061359b565b60405180910390f35b6102976004803603810190610292919061368e565b610ad7565b6040516102a491906137c4565b60405180910390f35b6102b5610bf0565b6040516102c29190612fa5565b60405180910390f35b6102e560048036038101906102e091906137e6565b610bff565b6040516102f29190612fa5565b60405180910390f35b61031560048036038101906103109190613519565b610c82565b005b61031f610d5e565b005b61033b60048036038101906103369190613839565b610de6565b6040516103489190612fa5565b60405180910390f35b610359610e2a565b6040516103669190613888565b60405180910390f35b610377610e54565b005b610393600480360381019061038e91906138cf565b610ef6565b005b6103af60048036038101906103aa919061320a565b610f0c565b6040516103bc9190612fa5565b60405180910390f35b6103df60048036038101906103da9190613519565b610f29565b6040516103ec91906139c2565b60405180910390f35b6103fd6110db565b60405161040a9190612fa5565b60405180910390f35b61041b61111b565b6040516104289190612fa5565b60405180910390f35b61044b600480360381019061044691906139e4565b61115a565b6040516104589190613060565b60405180910390f35b61047b60048036038101906104769190613a24565b6111ee565b005b61049760048036038101906104929190613519565b61128f565b005b60008073ffffffffffffffffffffffffffffffffffffffff168373ffffffffffffffffffffffffffffffffffffffff16141561050a576040517f08c379a000000000000000000000000000000000000000000000000000000000815260040161050190613b2d565b60405180910390fd5b60008083815260200190815260200160002060008473ffffffffffffffffffffffffffffffffffffffff1673ffffffffffffffffffffffffffffffffffffffff16815260200190815260200160002054905092915050565b60007fd9b67a26000000000000000000000000000000000000000000000000000000007bffffffffffffffffffffffffffffffffffffffffffffffffffffffff1916827bffffffffffffffffffffffffffffffffffffffffffffffffffffffff1916148061062d57507f0e89341c000000000000000000000000000000000000000000000000000000007bffffffffffffffffffffffffffffffffffffffffffffffffffffffff1916827bffffffffffffffffffffffffffffffffffffffffffffffffffffffff1916145b8061063d575061063c82611749565b5b9050919050565b61064c6117b3565b73ffffffffffffffffffffffffffffffffffffffff1661066a610e2a565b73ffffffffffffffffffffffffffffffffffffffff16146106c0576040517f08c379a00000000000000000000000000000000000000000000000000000000081526004016106b790613b99565b60405180910390fd5b6106c9816117bb565b7fd09d05534067f74dbc9e6af794edbd29e904d7698e428d0bc1378e45889acdd7816040516106f891906132bf565b60405180910390a150565b60606002805461071290613be8565b80601f016020809104026020016040519081016040528092919081815260200182805461073e90613be8565b801561078b5780601f106107605761010080835404028352916020019161078b565b820191906000526020600020905b81548152906001019060200180831161076e57829003601f168201915b50505050509050919050565b600060096000600160028111156107b1576107b0613c1a565b5b60028111156107c3576107c2613c1a565b5b815260200190815260200160002054905090565b6107df6117b3565b73ffffffffffffffffffffffffffffffffffffffff168573ffffffffffffffffffffffffffffffffffffffff16148061082557506108248561081f6117b3565b61115a565b5b610864576040517f08c379a000000000000000000000000000000000000000000000000000000000815260040161085b90613cbb565b60405180910390fd5b61087185858585856117d5565b5050505050565b6108806117b3565b73ffffffffffffffffffffffffffffffffffffffff1661089e610e2a565b73ffffffffffffffffffffffffffffffffffffffff16146108f4576040517f08c379a00000000000000000000000000000000000000000000000000000000081526004016108eb90613b99565b60405180910390fd5b80600b60006101000a81548173ffffffffffffffffffffffffffffffffffffffff021916908373ffffffffffffffffffffffffffffffffffffffff16021790555050565b6000606060006109466117b3565b90506000610967826001600281111561096257610961613c1a565b5b610499565b905060008110156109ad576040517f08c379a00000000000000000000000000000000000000000000000000000000081526004016109a490613d73565b60405180910390fd5b600080600b60009054906101000a900473ffffffffffffffffffffffffffffffffffffffff1673ffffffffffffffffffffffffffffffffffffffff166040516024016109f890613ddf565b6040516020818303038152906040527f0b72c10f000000000000000000000000000000000000000000000000000000007bffffffffffffffffffffffffffffffffffffffffffffffffffffffff19166020820180517bffffffffffffffffffffffffffffffffffffffffffffffffffffffff8381831617835250505050604051610a829190613e3b565b6000604051808303816000865af19150503d8060008114610abf576040519150601f19603f3d011682016040523d82523d6000602084013e610ac4565b606091505b5091509150818195509550505050509091565b60608151835114610b1d576040517f08c379a0000000000000000000000000000000000000000000000000000000008152600401610b1490613ec4565b60405180910390fd5b6000835167ffffffffffffffff811115610b3a57610b39613096565b5b604051908082528060200260200182016040528015610b685781602001602082028036833780820191505090505b50905060005b8451811015610be557610bb5858281518110610b8d57610b8c613ee4565b5b6020026020010151858381518110610ba857610ba7613ee4565b5b6020026020010151610499565b828281518110610bc857610bc7613ee4565b5b60200260200101818152505080610bde90613f42565b9050610b6e565b508091505092915050565b6000610bfa611af7565b905090565b6000806000610c5d84600360008973ffffffffffffffffffffffffffffffffffffffff1673ffffffffffffffffffffffffffffffffffffffff1681526020019081526020016000206000888152602001908152602001600020611b08565b9150915081610c7557610c708686610499565b610c77565b805b925050509392505050565b600b60009054906101000a900473ffffffffffffffffffffffffffffffffffffffff1673ffffffffffffffffffffffffffffffffffffffff16610cc36117b3565b73ffffffffffffffffffffffffffffffffffffffff1614610d19576040517f08c379a0000000000000000000000000000000000000000000000000000000008152600401610d1090613ffd565b60405180910390fd5b610d24816001611bfe565b7f041da0de8339af5f20a4b5132b6ca00a60734208dc9ed0c9cfbc312d1624042481604051610d539190613888565b60405180910390a150565b610d666117b3565b73ffffffffffffffffffffffffffffffffffffffff16610d84610e2a565b73ffffffffffffffffffffffffffffffffffffffff1614610dda576040517f08c379a0000000000000000000000000000000000000000000000000000000008152600401610dd190613b99565b60405180910390fd5b610de46000611c96565b565b6000806000610e078460046000888152602001908152602001600020611b08565b9150915081610e1e57610e1985610f0c565b610e20565b805b9250505092915050565b6000600760009054906101000a900473ffffffffffffffffffffffffffffffffffffffff16905090565b600b60009054906101000a900473ffffffffffffffffffffffffffffffffffffffff1673ffffffffffffffffffffffffffffffffffffffff16610e956117b3565b73ffffffffffffffffffffffffffffffffffffffff1614610eeb576040517f08c379a0000000000000000000000000000000000000000000000000000000008152600401610ee290613ffd565b60405180910390fd5b610ef3611d5c565b50565b610f08610f016117b3565b8383611db2565b5050565b600060056000838152602001908152602001600020549050919050565b610f31612d79565b600b60009054906101000a900473ffffffffffffffffffffffffffffffffffffffff1673ffffffffffffffffffffffffffffffffffffffff16610f726117b3565b73ffffffffffffffffffffffffffffffffffffffff1614610fc8576040517f08c379a0000000000000000000000000000000000000000000000000000000008152600401610fbf90613ffd565b60405180910390fd5b600360008373ffffffffffffffffffffffffffffffffffffffff1673ffffffffffffffffffffffffffffffffffffffff1681526020019081526020016000206000600181526020019081526020016000206040518060400160405290816000820180548060200260200160405190810160405280929190818152602001828054801561107357602002820191906000526020600020905b81548152602001906001019080831161105f575b50505050508152602001600182018054806020026020016040519081016040528092919081815260200182805480156110cb57602002820191906000526020600020905b8154815260200190600101908083116110b7575b5050505050815250509050919050565b600060096000600160028111156110f5576110f4613c1a565b5b600281111561110757611106613c1a565b5b815260200190815260200160002054905090565b60006009600060028081111561113457611133613c1a565b5b600281111561114657611145613c1a565b5b815260200190815260200160002054905090565b6000600160008473ffffffffffffffffffffffffffffffffffffffff1673ffffffffffffffffffffffffffffffffffffffff16815260200190815260200160002060008373ffffffffffffffffffffffffffffffffffffffff1673ffffffffffffffffffffffffffffffffffffffff16815260200190815260200160002060009054906101000a900460ff16905092915050565b6111f66117b3565b73ffffffffffffffffffffffffffffffffffffffff168573ffffffffffffffffffffffffffffffffffffffff16148061123c575061123b856112366117b3565b61115a565b5b61127b576040517f08c379a00000000000000000000000000000000000000000000000000000000081526004016112729061408f565b60405180910390fd5b6112888585858585611f1f565b5050505050565b6112976117b3565b73ffffffffffffffffffffffffffffffffffffffff166112b5610e2a565b73ffffffffffffffffffffffffffffffffffffffff161461130b576040517f08c379a000000000000000000000000000000000000000000000000000000000815260040161130290613b99565b60405180910390fd5b600073ffffffffffffffffffffffffffffffffffffffff168173ffffffffffffffffffffffffffffffffffffffff16141561137b576040517f08c379a000000000000000000000000000000000000000000000000000000000815260040161137290614121565b60405180910390fd5b61138481611c96565b50565b61139081611738565b600073ffffffffffffffffffffffffffffffffffffffff16816020015173ffffffffffffffffffffffffffffffffffffffff16141561152257600181606001515114156114735780608001516000815181106113ef576113ee613ee4565b5b602002602001015160056000836060015160008151811061141357611412613ee4565b5b6020026020010151815260200190815260200160002060008282546114389190614141565b92505081905550611459816040015161145483606001516121af565b6121d9565b61146e61146982606001516121af565b61223f565b61151d565b60005b8160600151518110156114fc578160800151818151811061149a57611499613ee4565b5b602002602001015160056000846060015184815181106114bd576114bc613ee4565b5b6020026020010151815260200190815260200160002060008282546114e29190614141565b9250508190555080806114f490613f42565b915050611476565b5061150f81604001518260600151612266565b61151c816060015161230c565b5b611722565b600073ffffffffffffffffffffffffffffffffffffffff16816040015173ffffffffffffffffffffffffffffffffffffffff1614156116b4576001816060015151141561160557806080015160008151811061158157611580613ee4565b5b60200260200101516005600083606001516000815181106115a5576115a4613ee4565b5b6020026020010151815260200190815260200160002060008282546115ca9190614197565b925050819055506115eb81604001516115e683606001516121af565b6121d9565b6116006115fb82606001516121af565b61223f565b6116af565b60005b81606001515181101561168e578160800151818151811061162c5761162b613ee4565b5b6020026020010151600560008460600151848151811061164f5761164e613ee4565b5b6020026020010151815260200190815260200160002060008282546116749190614197565b92505081905550808061168690613f42565b915050611608565b506116a181602001518260600151612266565b6116ae816060015161230c565b5b611721565b600181606001515114156116fb576116dc81602001516116d783606001516121af565b6121d9565b6116f681604001516116f183606001516121af565b6121d9565b611720565b61170d81602001518260600151612266565b61171f81604001518260600151612266565b5b5b5b50565b600080823b905060008111915050919050565b50565b600081600001549050919050565b60007f01ffc9a7000000000000000000000000000000000000000000000000000000007bffffffffffffffffffffffffffffffffffffffffffffffffffffffff1916827bffffffffffffffffffffffffffffffffffffffffffffffffffffffff1916149050919050565b600033905090565b80600290805190602001906117d1929190612d93565b5050565b8151835114611819576040517f08c379a00000000000000000000000000000000000000000000000000000000081526004016118109061423d565b60405180910390fd5b600073ffffffffffffffffffffffffffffffffffffffff168473ffffffffffffffffffffffffffffffffffffffff161415611889576040517f08c379a0000000000000000000000000000000000000000000000000000000008152600401611880906142cf565b60405180910390fd5b60006118936117b3565b905060006118a582878988888861237b565b90506118b08161245c565b60005b8551811015611a615760008682815181106118d1576118d0613ee4565b5b6020026020010151905060008683815181106118f0576118ef613ee4565b5b60200260200101519050600080600084815260200190815260200160002060008c73ffffffffffffffffffffffffffffffffffffffff1673ffffffffffffffffffffffffffffffffffffffff16815260200190815260200160002054905081811015611991576040517f08c379a000000000000000000000000000000000000000000000000000000000815260040161198890614361565b60405180910390fd5b81810360008085815260200190815260200160002060008d73ffffffffffffffffffffffffffffffffffffffff1673ffffffffffffffffffffffffffffffffffffffff168152602001908152602001600020819055508160008085815260200190815260200160002060008c73ffffffffffffffffffffffffffffffffffffffff1673ffffffffffffffffffffffffffffffffffffffff1681526020019081526020016000206000828254611a469190614141565b9250508190555050505080611a5a90613f42565b90506118b3565b508573ffffffffffffffffffffffffffffffffffffffff168773ffffffffffffffffffffffffffffffffffffffff168373ffffffffffffffffffffffffffffffffffffffff167f4a39dc06d4c0dbc64b70af90fd698a233a518aa5d07e595d983b8c0526c8f7fb8888604051611ad8929190614381565b60405180910390a4611aee8288888888886124df565b50505050505050565b6000611b03600661173b565b905090565b60008060008411611b4e576040517f08c379a0000000000000000000000000000000000000000000000000000000008152600401611b4590614404565b60405180910390fd5b611b56611af7565b841115611b98576040517f08c379a0000000000000000000000000000000000000000000000000000000008152600401611b8f90614470565b60405180910390fd5b6000611bb085856000016126c690919063ffffffff16565b90508360000180549050811415611bce576000809250925050611bf7565b6001846001018281548110611be657611be5613ee4565b5b906000526020600020015492509250505b9250929050565b611c5182600280811115611c1557611c14613c1a565b5b836040518060400160405280600481526020017f30783030000000000000000000000000000000000000000000000000000000008152506127a0565b600a6000015460096000600280811115611c6e57611c6d613c1a565b5b6002811115611c8057611c7f613c1a565b5b8152602001908152602001600020819055505050565b6000600760009054906101000a900473ffffffffffffffffffffffffffffffffffffffff16905081600760006101000a81548173ffffffffffffffffffffffffffffffffffffffff021916908373ffffffffffffffffffffffffffffffffffffffff1602179055508173ffffffffffffffffffffffffffffffffffffffff168173ffffffffffffffffffffffffffffffffffffffff167f8be0079c531659141344cd1fd0a4f28419497f9722a3daafe3b4186f6b6457e060405160405180910390a35050565b6000611d686006612a14565b6000611d72611af7565b90507f8030e83b04d87bef53480e26263266d6ca66863aa8506aca6f2559d18aa1cb6781604051611da39190612fa5565b60405180910390a18091505090565b8173ffffffffffffffffffffffffffffffffffffffff168373ffffffffffffffffffffffffffffffffffffffff161415611e21576040517f08c379a0000000000000000000000000000000000000000000000000000000008152600401611e1890614502565b60405180910390fd5b80600160008573ffffffffffffffffffffffffffffffffffffffff1673ffffffffffffffffffffffffffffffffffffffff16815260200190815260200160002060008473ffffffffffffffffffffffffffffffffffffffff1673ffffffffffffffffffffffffffffffffffffffff16815260200190815260200160002060006101000a81548160ff0219169083151502179055508173ffffffffffffffffffffffffffffffffffffffff168373ffffffffffffffffffffffffffffffffffffffff167f17307eab39ab6107e8899845ad3d59bd9653f200f220920489ca2b5937696c3183604051611f129190613060565b60405180910390a3505050565b600073ffffffffffffffffffffffffffffffffffffffff168473ffffffffffffffffffffffffffffffffffffffff161415611f8f576040517f08c379a0000000000000000000000000000000000000000000000000000000008152600401611f86906142cf565b60405180910390fd5b6000611f996117b3565b90506000611fbb828789611fac89612a2a565b611fb589612a2a565b8861237b565b9050611fc68161245c565b600080600087815260200190815260200160002060008973ffffffffffffffffffffffffffffffffffffffff1673ffffffffffffffffffffffffffffffffffffffff1681526020019081526020016000205490508481101561205d576040517f08c379a000000000000000000000000000000000000000000000000000000000815260040161205490614361565b60405180910390fd5b84810360008088815260200190815260200160002060008a73ffffffffffffffffffffffffffffffffffffffff1673ffffffffffffffffffffffffffffffffffffffff168152602001908152602001600020819055508460008088815260200190815260200160002060008973ffffffffffffffffffffffffffffffffffffffff1673ffffffffffffffffffffffffffffffffffffffff16815260200190815260200160002060008282546121129190614141565b925050819055508673ffffffffffffffffffffffffffffffffffffffff168873ffffffffffffffffffffffffffffffffffffffff168473ffffffffffffffffffffffffffffffffffffffff167fc3d58168c5ae7397731d063d5bbf3d657854427343f4c083240f7aacaa2d0f62898960405161218f929190614522565b60405180910390a46121a5838989898989612aa4565b5050505050505050565b600080826000815181106121c6576121c5613ee4565b5b6020026020010151905080915050919050565b61223b600360008473ffffffffffffffffffffffffffffffffffffffff1673ffffffffffffffffffffffffffffffffffffffff16815260200190815260200160002060008381526020019081526020016000206122368484610499565b612c8b565b5050565b6122636004600083815260200190815260200160002061225e83610f0c565b612c8b565b50565b60005b815181101561230757600082828151811061228757612286613ee4565b5b602002602001015190506122f3600360008673ffffffffffffffffffffffffffffffffffffffff1673ffffffffffffffffffffffffffffffffffffffff16815260200190815260200160002060008381526020019081526020016000206122ee8684610499565b612c8b565b5080806122ff90613f42565b915050612269565b505050565b60005b815181101561237757600082828151811061232d5761232c613ee4565b5b602002602001015190506123636004600083815260200190815260200160002061235e612359866121af565b610f0c565b612c8b565b50808061236f90613f42565b91505061230f565b5050565b612383612e19565b61238b612e19565b87816000019073ffffffffffffffffffffffffffffffffffffffff16908173ffffffffffffffffffffffffffffffffffffffff168152505085816020019073ffffffffffffffffffffffffffffffffffffffff16908173ffffffffffffffffffffffffffffffffffffffff168152505086816040019073ffffffffffffffffffffffffffffffffffffffff16908173ffffffffffffffffffffffffffffffffffffffff1681525050848160600181905250838160800181905250828160a00181905250809150509695505050505050565b61246581611387565b600073ffffffffffffffffffffffffffffffffffffffff16816020015173ffffffffffffffffffffffffffffffffffffffff1614156124a3576124dc565b600181606001516000815181106124bd576124bc613ee4565b5b602002602001015114156124da576124d3610938565b50506124db565b5b5b50565b6124fe8473ffffffffffffffffffffffffffffffffffffffff16611725565b156126be578373ffffffffffffffffffffffffffffffffffffffff1663bc197c8187878686866040518663ffffffff1660e01b815260040161254495949392919061454b565b602060405180830381600087803b15801561255e57600080fd5b505af192505050801561258f57506040513d601f19601f8201168201806040525081019061258c91906145c8565b60015b6126355761259b614602565b806308c379a014156125f857506125b0614624565b806125bb57506125fa565b806040517f08c379a00000000000000000000000000000000000000000000000000000000081526004016125ef91906132bf565b60405180910390fd5b505b6040517f08c379a000000000000000000000000000000000000000000000000000000000815260040161262c9061472c565b60405180910390fd5b63bc197c8160e01b7bffffffffffffffffffffffffffffffffffffffffffffffffffffffff1916817bffffffffffffffffffffffffffffffffffffffffffffffffffffffff1916146126bc576040517f08c379a00000000000000000000000000000000000000000000000000000000081526004016126b3906147be565b60405180910390fd5b505b505050505050565b600080838054905014156126dd576000905061279a565b600080848054905090505b808210156127415760006126fc8383612d06565b90508486828154811061271257612711613ee4565b5b9060005260206000200154111561272b5780915061273b565b6001816127389190614141565b92505b506126e8565b6000821180156127795750838560018461275b9190614197565b8154811061276c5761276b613ee4565b5b9060005260206000200154145b156127945760018261278b9190614197565b9250505061279a565b81925050505b92915050565b600073ffffffffffffffffffffffffffffffffffffffff168473ffffffffffffffffffffffffffffffffffffffff161415612810576040517f08c379a000000000000000000000000000000000000000000000000000000000815260040161280790614850565b60405180910390fd5b600061281a6117b3565b90506000600167ffffffffffffffff81111561283957612838613096565b5b6040519080825280602002602001820160405280156128675781602001602082028036833780820191505090505b5090506000600167ffffffffffffffff81111561288757612886613096565b5b6040519080825280602002602001820160405280156128b55781602001602082028036833780820191505090505b50905085826000815181106128cd576128cc613ee4565b5b60200260200101818152505084816000815181106128ee576128ed613ee4565b5b602002602001018181525050600061290b8489600086868a61237b565b90506129168161245c565b8560008089815260200190815260200160002060008a73ffffffffffffffffffffffffffffffffffffffff1673ffffffffffffffffffffffffffffffffffffffff16815260200190815260200160002060008282546129759190614141565b925050819055508773ffffffffffffffffffffffffffffffffffffffff16600073ffffffffffffffffffffffffffffffffffffffff168573ffffffffffffffffffffffffffffffffffffffff167fc3d58168c5ae7397731d063d5bbf3d657854427343f4c083240f7aacaa2d0f628a8a6040516129f3929190614522565b60405180910390a4612a0a8460008a8a8a8a612aa4565b5050505050505050565b6001816000016000828254019250508190555050565b60606000600167ffffffffffffffff811115612a4957612a48613096565b5b604051908082528060200260200182016040528015612a775781602001602082028036833780820191505090505b5090508281600081518110612a8f57612a8e613ee4565b5b60200260200101818152505080915050919050565b612ac38473ffffffffffffffffffffffffffffffffffffffff16611725565b15612c83578373ffffffffffffffffffffffffffffffffffffffff1663f23a6e6187878686866040518663ffffffff1660e01b8152600401612b09959493929190614870565b602060405180830381600087803b158015612b2357600080fd5b505af1925050508015612b5457506040513d601f19601f82011682018060405250810190612b5191906145c8565b60015b612bfa57612b60614602565b806308c379a01415612bbd5750612b75614624565b80612b805750612bbf565b806040517f08c379a0000000000000000000000000000000000000000000000000000000008152600401612bb491906132bf565b60405180910390fd5b505b6040517f08c379a0000000000000000000000000000000000000000000000000000000008152600401612bf19061472c565b60405180910390fd5b63f23a6e6160e01b7bffffffffffffffffffffffffffffffffffffffffffffffffffffffff1916817bffffffffffffffffffffffffffffffffffffffffffffffffffffffff191614612c81576040517f08c379a0000000000000000000000000000000000000000000000000000000008152600401612c78906147be565b60405180910390fd5b505b505050505050565b6000612c95611af7565b905080612ca484600001612d2c565b1015612d015782600001819080600181540180825580915050600190039060005260206000200160009091909190915055826001018290806001815401808255809150506001900390600052602060002001600090919091909150555b505050565b60006002828418612d1791906148f9565b828416612d249190614141565b905092915050565b60008082805490501415612d435760009050612d74565b8160018380549050612d559190614197565b81548110612d6657612d65613ee4565b5b906000526020600020015490505b919050565b604051806040016040528060608152602001606081525090565b828054612d9f90613be8565b90600052602060002090601f016020900481019282612dc15760008555612e08565b82601f10612dda57805160ff1916838001178555612e08565b82800160010185558215612e08579182015b82811115612e07578251825591602001919060010190612dec565b5b509050612e159190612e91565b5090565b6040518060c00160405280600073ffffffffffffffffffffffffffffffffffffffff168152602001600073ffffffffffffffffffffffffffffffffffffffff168152602001600073ffffffffffffffffffffffffffffffffffffffff1681526020016060815260200160608152602001606081525090565b5b80821115612eaa576000816000905550600101612e92565b5090565b6000604051905090565b600080fd5b600080fd5b600073ffffffffffffffffffffffffffffffffffffffff82169050919050565b6000612eed82612ec2565b9050919050565b612efd81612ee2565b8114612f0857600080fd5b50565b600081359050612f1a81612ef4565b92915050565b6000819050919050565b612f3381612f20565b8114612f3e57600080fd5b50565b600081359050612f5081612f2a565b92915050565b60008060408385031215612f6d57612f6c612eb8565b5b6000612f7b85828601612f0b565b9250506020612f8c85828601612f41565b9150509250929050565b612f9f81612f20565b82525050565b6000602082019050612fba6000830184612f96565b92915050565b60007fffffffff0000000000000000000000000000000000000000000000000000000082169050919050565b612ff581612fc0565b811461300057600080fd5b50565b60008135905061301281612fec565b92915050565b60006020828403121561302e5761302d612eb8565b5b600061303c84828501613003565b91505092915050565b60008115159050919050565b61305a81613045565b82525050565b60006020820190506130756000830184613051565b92915050565b600080fd5b600080fd5b6000601f19601f8301169050919050565b7f4e487b7100000000000000000000000000000000000000000000000000000000600052604160045260246000fd5b6130ce82613085565b810181811067ffffffffffffffff821117156130ed576130ec613096565b5b80604052505050565b6000613100612eae565b905061310c82826130c5565b919050565b600067ffffffffffffffff82111561312c5761312b613096565b5b61313582613085565b9050602081019050919050565b82818337600083830152505050565b600061316461315f84613111565b6130f6565b9050828152602081018484840111156131805761317f613080565b5b61318b848285613142565b509392505050565b600082601f8301126131a8576131a761307b565b5b81356131b8848260208601613151565b91505092915050565b6000602082840312156131d7576131d6612eb8565b5b600082013567ffffffffffffffff8111156131f5576131f4612ebd565b5b61320184828501613193565b91505092915050565b6000602082840312156132205761321f612eb8565b5b600061322e84828501612f41565b91505092915050565b600081519050919050565b600082825260208201905092915050565b60005b83811015613271578082015181840152602081019050613256565b83811115613280576000848401525b50505050565b600061329182613237565b61329b8185613242565b93506132ab818560208601613253565b6132b481613085565b840191505092915050565b600060208201905081810360008301526132d98184613286565b905092915050565b600067ffffffffffffffff8211156132fc576132fb613096565b5b602082029050602081019050919050565b600080fd5b6000613325613320846132e1565b6130f6565b905080838252602082019050602084028301858111156133485761334761330d565b5b835b81811015613371578061335d8882612f41565b84526020840193505060208101905061334a565b5050509392505050565b600082601f8301126133905761338f61307b565b5b81356133a0848260208601613312565b91505092915050565b600067ffffffffffffffff8211156133c4576133c3613096565b5b6133cd82613085565b9050602081019050919050565b60006133ed6133e8846133a9565b6130f6565b90508281526020810184848401111561340957613408613080565b5b613414848285613142565b509392505050565b600082601f8301126134315761343061307b565b5b81356134418482602086016133da565b91505092915050565b600080600080600060a0868803121561346657613465612eb8565b5b600061347488828901612f0b565b955050602061348588828901612f0b565b945050604086013567ffffffffffffffff8111156134a6576134a5612ebd565b5b6134b28882890161337b565b935050606086013567ffffffffffffffff8111156134d3576134d2612ebd565b5b6134df8882890161337b565b925050608086013567ffffffffffffffff811115613500576134ff612ebd565b5b61350c8882890161341c565b9150509295509295909350565b60006020828403121561352f5761352e612eb8565b5b600061353d84828501612f0b565b91505092915050565b600081519050919050565b600082825260208201905092915050565b600061356d82613546565b6135778185613551565b9350613587818560208601613253565b61359081613085565b840191505092915050565b60006040820190506135b06000830185613051565b81810360208301526135c28184613562565b90509392505050565b600067ffffffffffffffff8211156135e6576135e5613096565b5b602082029050602081019050919050565b600061360a613605846135cb565b6130f6565b9050808382526020820190506020840283018581111561362d5761362c61330d565b5b835b8181101561365657806136428882612f0b565b84526020840193505060208101905061362f565b5050509392505050565b600082601f8301126136755761367461307b565b5b81356136858482602086016135f7565b91505092915050565b600080604083850312156136a5576136a4612eb8565b5b600083013567ffffffffffffffff8111156136c3576136c2612ebd565b5b6136cf85828601613660565b925050602083013567ffffffffffffffff8111156136f0576136ef612ebd565b5b6136fc8582860161337b565b9150509250929050565b600081519050919050565b600082825260208201905092915050565b6000819050602082019050919050565b61373b81612f20565b82525050565b600061374d8383613732565b60208301905092915050565b6000602082019050919050565b600061377182613706565b61377b8185613711565b935061378683613722565b8060005b838110156137b757815161379e8882613741565b97506137a983613759565b92505060018101905061378a565b5085935050505092915050565b600060208201905081810360008301526137de8184613766565b905092915050565b6000806000606084860312156137ff576137fe612eb8565b5b600061380d86828701612f0b565b935050602061381e86828701612f41565b925050604061382f86828701612f41565b9150509250925092565b600080604083850312156138505761384f612eb8565b5b600061385e85828601612f41565b925050602061386f85828601612f41565b9150509250929050565b61388281612ee2565b82525050565b600060208201905061389d6000830184613879565b92915050565b6138ac81613045565b81146138b757600080fd5b50565b6000813590506138c9816138a3565b92915050565b600080604083850312156138e6576138e5612eb8565b5b60006138f485828601612f0b565b9250506020613905858286016138ba565b9150509250929050565b600082825260208201905092915050565b600061392b82613706565b613935818561390f565b935061394083613722565b8060005b838110156139715781516139588882613741565b975061396383613759565b925050600181019050613944565b5085935050505092915050565b6000604083016000830151848203600086015261399b8282613920565b915050602083015184820360208601526139b58282613920565b9150508091505092915050565b600060208201905081810360008301526139dc818461397e565b905092915050565b600080604083850312156139fb576139fa612eb8565b5b6000613a0985828601612f0b565b9250506020613a1a85828601612f0b565b9150509250929050565b600080600080600060a08688031215613a4057613a3f612eb8565b5b6000613a4e88828901612f0b565b9550506020613a5f88828901612f0b565b9450506040613a7088828901612f41565b9350506060613a8188828901612f41565b925050608086013567ffffffffffffffff811115613aa257613aa1612ebd565b5b613aae8882890161341c565b9150509295509295909350565b7f455243313135353a2062616c616e636520717565727920666f7220746865207a60008201527f65726f2061646472657373000000000000000000000000000000000000000000602082015250565b6000613b17602b83613242565b9150613b2282613abb565b604082019050919050565b60006020820190508181036000830152613b4681613b0a565b9050919050565b7f4f776e61626c653a2063616c6c6572206973206e6f7420746865206f776e6572600082015250565b6000613b83602083613242565b9150613b8e82613b4d565b602082019050919050565b60006020820190508181036000830152613bb281613b76565b9050919050565b7f4e487b7100000000000000000000000000000000000000000000000000000000600052602260045260246000fd5b60006002820490506001821680613c0057607f821691505b60208210811415613c1457613c13613bb9565b5b50919050565b7f4e487b7100000000000000000000000000000000000000000000000000000000600052602160045260246000fd5b7f455243313135353a207472616e736665722063616c6c6572206973206e6f742060008201527f6f776e6572206e6f7220617070726f7665640000000000000000000000000000602082015250565b6000613ca5603283613242565b9150613cb082613c49565b604082019050919050565b60006020820190508181036000830152613cd481613c98565b9050919050565b7f5a494f4e2e455243313135354d6173746572546f6b656e53686f703a3a20557360008201527f6572206973206e6f7420616c6c6f77656420746f2063616c6c2074686973206660208201527f756e6374696f6e00000000000000000000000000000000000000000000000000604082015250565b6000613d5d604783613242565b9150613d6882613cdb565b606082019050919050565b60006020820190508181036000830152613d8c81613d50565b9050919050565b7f63616c6c206469766964656e644f6e5368617265735472616e73666572000000600082015250565b6000613dc9601d83613242565b9150613dd482613d93565b602082019050919050565b60006020820190508181036000830152613df881613dbc565b9050919050565b600081905092915050565b6000613e1582613546565b613e1f8185613dff565b9350613e2f818560208601613253565b80840191505092915050565b6000613e478284613e0a565b915081905092915050565b7f455243313135353a206163636f756e747320616e6420696473206c656e67746860008201527f206d69736d617463680000000000000000000000000000000000000000000000602082015250565b6000613eae602983613242565b9150613eb982613e52565b604082019050919050565b60006020820190508181036000830152613edd81613ea1565b9050919050565b7f4e487b7100000000000000000000000000000000000000000000000000000000600052603260045260246000fd5b7f4e487b7100000000000000000000000000000000000000000000000000000000600052601160045260246000fd5b6000613f4d82612f20565b91507fffffffffffffffffffffffffffffffffffffffffffffffffffffffffffffffff821415613f8057613f7f613f13565b5b600182019050919050565b7f5a494f4e2e455243313135354d61737465723a3a2055736572206973206e6f7460008201527f20616c6c6f77656420746f2063616c6c20746869732066756e6374696f6e0000602082015250565b6000613fe7603e83613242565b9150613ff282613f8b565b604082019050919050565b6000602082019050818103600083015261401681613fda565b9050919050565b7f455243313135353a2063616c6c6572206973206e6f74206f776e6572206e6f7260008201527f20617070726f7665640000000000000000000000000000000000000000000000602082015250565b6000614079602983613242565b91506140848261401d565b604082019050919050565b600060208201905081810360008301526140a88161406c565b9050919050565b7f4f776e61626c653a206e6577206f776e657220697320746865207a65726f206160008201527f6464726573730000000000000000000000000000000000000000000000000000602082015250565b600061410b602683613242565b9150614116826140af565b604082019050919050565b6000602082019050818103600083015261413a816140fe565b9050919050565b600061414c82612f20565b915061415783612f20565b9250827fffffffffffffffffffffffffffffffffffffffffffffffffffffffffffffffff0382111561418c5761418b613f13565b5b828201905092915050565b60006141a282612f20565b91506141ad83612f20565b9250828210156141c0576141bf613f13565b5b828203905092915050565b7f455243313135353a2069647320616e6420616d6f756e7473206c656e6774682060008201527f6d69736d61746368000000000000000000000000000000000000000000000000602082015250565b6000614227602883613242565b9150614232826141cb565b604082019050919050565b600060208201905081810360008301526142568161421a565b9050919050565b7f455243313135353a207472616e7366657220746f20746865207a65726f20616460008201527f6472657373000000000000000000000000000000000000000000000000000000602082015250565b60006142b9602583613242565b91506142c48261425d565b604082019050919050565b600060208201905081810360008301526142e8816142ac565b9050919050565b7f455243313135353a20696e73756666696369656e742062616c616e636520666f60008201527f72207472616e7366657200000000000000000000000000000000000000000000602082015250565b600061434b602a83613242565b9150614356826142ef565b604082019050919050565b6000602082019050818103600083015261437a8161433e565b9050919050565b6000604082019050818103600083015261439b8185613766565b905081810360208301526143af8184613766565b90509392505050565b7f4552433230536e617073686f743a206964206973203000000000000000000000600082015250565b60006143ee601683613242565b91506143f9826143b8565b602082019050919050565b6000602082019050818103600083015261441d816143e1565b9050919050565b7f4552433230536e617073686f743a206e6f6e6578697374656e74206964000000600082015250565b600061445a601d83613242565b915061446582614424565b602082019050919050565b600060208201905081810360008301526144898161444d565b9050919050565b7f455243313135353a2073657474696e6720617070726f76616c2073746174757360008201527f20666f722073656c660000000000000000000000000000000000000000000000602082015250565b60006144ec602983613242565b91506144f782614490565b604082019050919050565b6000602082019050818103600083015261451b816144df565b9050919050565b60006040820190506145376000830185612f96565b6145446020830184612f96565b9392505050565b600060a0820190506145606000830188613879565b61456d6020830187613879565b818103604083015261457f8186613766565b905081810360608301526145938185613766565b905081810360808301526145a78184613562565b90509695505050505050565b6000815190506145c281612fec565b92915050565b6000602082840312156145de576145dd612eb8565b5b60006145ec848285016145b3565b91505092915050565b60008160e01c9050919050565b600060033d11156146215760046000803e61461e6000516145f5565b90505b90565b600060443d1015614634576146b7565b61463c612eae565b60043d036004823e80513d602482011167ffffffffffffffff821117156146645750506146b7565b808201805167ffffffffffffffff81111561468257505050506146b7565b80602083010160043d03850181111561469f5750505050506146b7565b6146ae826020018501866130c5565b82955050505050505b90565b7f455243313135353a207472616e7366657220746f206e6f6e204552433131353560008201527f526563656976657220696d706c656d656e746572000000000000000000000000602082015250565b6000614716603483613242565b9150614721826146ba565b604082019050919050565b6000602082019050818103600083015261474581614709565b9050919050565b7f455243313135353a204552433131353552656365697665722072656a6563746560008201527f6420746f6b656e73000000000000000000000000000000000000000000000000602082015250565b60006147a8602883613242565b91506147b38261474c565b604082019050919050565b600060208201905081810360008301526147d78161479b565b9050919050565b7f455243313135353a206d696e7420746f20746865207a65726f2061646472657360008201527f7300000000000000000000000000000000000000000000000000000000000000602082015250565b600061483a602183613242565b9150614845826147de565b604082019050919050565b600060208201905081810360008301526148698161482d565b9050919050565b600060a0820190506148856000830188613879565b6148926020830187613879565b61489f6040830186612f96565b6148ac6060830185612f96565b81810360808301526148be8184613562565b90509695505050505050565b7f4e487b7100000000000000000000000000000000000000000000000000000000600052601260045260246000fd5b600061490482612f20565b915061490f83612f20565b92508261491f5761491e6148ca565b5b82820490509291505056fea2646970667358221220e69e5486ea7e2b2b3b4f98d2ad43756b1c4bdccc4697282e467fcc21e1cdcccf64736f6c63430008090033",
  "linkReferences": {},
  "deployedLinkReferences": {}
}