{
  "_format": "hh-sol-artifact-1",
  "contractName": "ERC1155IndividualURI",
  "sourceName": "contracts/zion/test/ERC1155IndividualUri.sol",
  "abi": [
    {
      "inputs": [
        {
          "internalType": "string",
          "name": "newuri",
          "type": "string"
        }
      ],
      "stateMutability": "nonpayable",
      "type": "constructor"
    },
    {
      "anonymous": false,
      "inputs": [
        {
          "indexed": true,
          "internalType": "address",
          "name": "account",
          "type": "address"
        },
        {
          "indexed": true,
          "internalType": "address",
          "name": "operator",
          "type": "address"
        },
        {
          "indexed": false,
          "internalType": "bool",
          "name": "approved",
          "type": "bool"
        }
      ],
      "name": "ApprovalForAll",
      "type": "event"
    },
    {
      "anonymous": false,
      "inputs": [
        {
          "indexed": true,
          "internalType": "address",
          "name": "operator",
          "type": "address"
        },
        {
          "indexed": true,
          "internalType": "address",
          "name": "from",
          "type": "address"
        },
        {
          "indexed": true,
          "internalType": "address",
          "name": "to",
          "type": "address"
        },
        {
          "indexed": false,
          "internalType": "uint256[]",
          "name": "ids",
          "type": "uint256[]"
        },
        {
          "indexed": false,
          "internalType": "uint256[]",
          "name": "values",
          "type": "uint256[]"
        }
      ],
      "name": "TransferBatch",
      "type": "event"
    },
    {
      "anonymous": false,
      "inputs": [
        {
          "indexed": true,
          "internalType": "address",
          "name": "operator",
          "type": "address"
        },
        {
          "indexed": true,
          "internalType": "address",
          "name": "from",
          "type": "address"
        },
        {
          "indexed": true,
          "internalType": "address",
          "name": "to",
          "type": "address"
        },
        {
          "indexed": false,
          "internalType": "uint256",
          "name": "id",
          "type": "uint256"
        },
        {
          "indexed": false,
          "internalType": "uint256",
          "name": "value",
          "type": "uint256"
        }
      ],
      "name": "TransferSingle",
      "type": "event"
    },
    {
      "anonymous": false,
      "inputs": [
        {
          "indexed": false,
          "internalType": "string",
          "name": "value",
          "type": "string"
        },
        {
          "indexed": true,
          "internalType": "uint256",
          "name": "id",
          "type": "uint256"
        }
      ],
      "name": "URI",
      "type": "event"
    },
    {
      "inputs": [
        {
          "internalType": "address",
          "name": "account",
          "type": "address"
        },
        {
          "internalType": "uint256",
          "name": "id",
          "type": "uint256"
        }
      ],
      "name": "balanceOf",
      "outputs": [
        {
          "internalType": "uint256",
          "name": "",
          "type": "uint256"
        }
      ],
      "stateMutability": "view",
      "type": "function"
    },
    {
      "inputs": [
        {
          "internalType": "address[]",
          "name": "accounts",
          "type": "address[]"
        },
        {
          "internalType": "uint256[]",
          "name": "ids",
          "type": "uint256[]"
        }
      ],
      "name": "balanceOfBatch",
      "outputs": [
        {
          "internalType": "uint256[]",
          "name": "",
          "type": "uint256[]"
        }
      ],
      "stateMutability": "view",
      "type": "function"
    },
    {
      "inputs": [
        {
          "internalType": "address",
          "name": "account",
          "type": "address"
        },
        {
          "internalType": "address",
          "name": "operator",
          "type": "address"
        }
      ],
      "name": "isApprovedForAll",
      "outputs": [
        {
          "internalType": "bool",
          "name": "",
          "type": "bool"
        }
      ],
      "stateMutability": "view",
      "type": "function"
    },
    {
      "inputs": [
        {
          "internalType": "address",
          "name": "to",
          "type": "address"
        },
        {
          "internalType": "uint256",
          "name": "id",
          "type": "uint256"
        }
      ],
      "name": "mint",
      "outputs": [],
      "stateMutability": "nonpayable",
      "type": "function"
    },
    {
      "inputs": [
        {
          "internalType": "address",
          "name": "from",
          "type": "address"
        },
        {
          "internalType": "address",
          "name": "to",
          "type": "address"
        },
        {
          "internalType": "uint256[]",
          "name": "ids",
          "type": "uint256[]"
        },
        {
          "internalType": "uint256[]",
          "name": "amounts",
          "type": "uint256[]"
        },
        {
          "internalType": "bytes",
          "name": "data",
          "type": "bytes"
        }
      ],
      "name": "safeBatchTransferFrom",
      "outputs": [],
      "stateMutability": "nonpayable",
      "type": "function"
    },
    {
      "inputs": [
        {
          "internalType": "address",
          "name": "from",
          "type": "address"
        },
        {
          "internalType": "address",
          "name": "to",
          "type": "address"
        },
        {
          "internalType": "uint256",
          "name": "id",
          "type": "uint256"
        },
        {
          "internalType": "uint256",
          "name": "amount",
          "type": "uint256"
        },
        {
          "internalType": "bytes",
          "name": "data",
          "type": "bytes"
        }
      ],
      "name": "safeTransferFrom",
      "outputs": [],
      "stateMutability": "nonpayable",
      "type": "function"
    },
    {
      "inputs": [
        {
          "internalType": "address",
          "name": "operator",
          "type": "address"
        },
        {
          "internalType": "bool",
          "name": "approved",
          "type": "bool"
        }
      ],
      "name": "setApprovalForAll",
      "outputs": [],
      "stateMutability": "nonpayable",
      "type": "function"
    },
    {
      "inputs": [
        {
          "internalType": "uint256",
          "name": "tokenId",
          "type": "uint256"
        },
        {
          "internalType": "string",
          "name": "uri_",
          "type": "string"
        }
      ],
      "name": "setTokenUri",
      "outputs": [],
      "stateMutability": "nonpayable",
      "type": "function"
    },
    {
      "inputs": [
        {
          "internalType": "bytes4",
          "name": "interfaceId",
          "type": "bytes4"
        }
      ],
      "name": "supportsInterface",
      "outputs": [
        {
          "internalType": "bool",
          "name": "",
          "type": "bool"
        }
      ],
      "stateMutability": "view",
      "type": "function"
    },
    {
      "inputs": [
        {
          "internalType": "uint256",
          "name": "tokenId",
          "type": "uint256"
        }
      ],
      "name": "uri",
      "outputs": [
        {
          "internalType": "string",
          "name": "",
          "type": "string"
        }
      ],
      "stateMutability": "view",
      "type": "function"
    }
  ],
  "bytecode": "0x60806040523480156200001157600080fd5b5060405162003007380380620030078339818101604052810190620000379190620002ba565b8062000049816200005160201b60201c565b505062000370565b8060029080519060200190620000699291906200006d565b5050565b8280546200007b906200033a565b90600052602060002090601f0160209004810192826200009f5760008555620000eb565b82601f10620000ba57805160ff1916838001178555620000eb565b82800160010185558215620000eb579182015b82811115620000ea578251825591602001919060010190620000cd565b5b509050620000fa9190620000fe565b5090565b5b8082111562000119576000816000905550600101620000ff565b5090565b6000604051905090565b600080fd5b600080fd5b600080fd5b600080fd5b6000601f19601f8301169050919050565b7f4e487b7100000000000000000000000000000000000000000000000000000000600052604160045260246000fd5b62000186826200013b565b810181811067ffffffffffffffff82111715620001a857620001a76200014c565b5b80604052505050565b6000620001bd6200011d565b9050620001cb82826200017b565b919050565b600067ffffffffffffffff821115620001ee57620001ed6200014c565b5b620001f9826200013b565b9050602081019050919050565b60005b838110156200022657808201518184015260208101905062000209565b8381111562000236576000848401525b50505050565b6000620002536200024d84620001d0565b620001b1565b90508281526020810184848401111562000272576200027162000136565b5b6200027f84828562000206565b509392505050565b600082601f8301126200029f576200029e62000131565b5b8151620002b18482602086016200023c565b91505092915050565b600060208284031215620002d357620002d262000127565b5b600082015167ffffffffffffffff811115620002f457620002f36200012c565b5b620003028482850162000287565b91505092915050565b7f4e487b7100000000000000000000000000000000000000000000000000000000600052602260045260246000fd5b600060028204905060018216806200035357607f821691505b602082108114156200036a57620003696200030b565b5b50919050565b612c8780620003806000396000f3fe608060405234801561001057600080fd5b506004361061009d5760003560e01c80634e1273f4116100665780634e1273f41461016a57806357f7789e1461019a578063a22cb465146101b6578063e985e9c5146101d2578063f242432a146102025761009d565b8062fdd58e146100a257806301ffc9a7146100d25780630e89341c146101025780632eb2c2d61461013257806340c10f191461014e575b600080fd5b6100bc60048036038101906100b791906118ec565b61021e565b6040516100c9919061193b565b60405180910390f35b6100ec60048036038101906100e791906119ae565b6102e7565b6040516100f991906119f6565b60405180910390f35b61011c60048036038101906101179190611a11565b6103c9565b6040516101299190611ad7565b60405180910390f35b61014c60048036038101906101479190611cf6565b61046e565b005b610168600480360381019061016391906118ec565b61050f565b005b610184600480360381019061017f9190611e88565b610555565b6040516101919190611fbe565b60405180910390f35b6101b460048036038101906101af9190612081565b61066e565b005b6101d060048036038101906101cb9190612109565b61069a565b005b6101ec60048036038101906101e79190612149565b6106b0565b6040516101f991906119f6565b60405180910390f35b61021c60048036038101906102179190612189565b610744565b005b60008073ffffffffffffffffffffffffffffffffffffffff168373ffffffffffffffffffffffffffffffffffffffff16141561028f576040517f08c379a000000000000000000000000000000000000000000000000000000000815260040161028690612292565b60405180910390fd5b60008083815260200190815260200160002060008473ffffffffffffffffffffffffffffffffffffffff1673ffffffffffffffffffffffffffffffffffffffff16815260200190815260200160002054905092915050565b60007fd9b67a26000000000000000000000000000000000000000000000000000000007bffffffffffffffffffffffffffffffffffffffffffffffffffffffff1916827bffffffffffffffffffffffffffffffffffffffffffffffffffffffff191614806103b257507f0e89341c000000000000000000000000000000000000000000000000000000007bffffffffffffffffffffffffffffffffffffffffffffffffffffffff1916827bffffffffffffffffffffffffffffffffffffffffffffffffffffffff1916145b806103c257506103c1826107e5565b5b9050919050565b60606003600083815260200190815260200160002080546103e9906122e1565b80601f0160208091040260200160405190810160405280929190818152602001828054610415906122e1565b80156104625780601f1061043757610100808354040283529160200191610462565b820191906000526020600020905b81548152906001019060200180831161044557829003601f168201915b50505050509050919050565b61047661084f565b73ffffffffffffffffffffffffffffffffffffffff168573ffffffffffffffffffffffffffffffffffffffff1614806104bc57506104bb856104b661084f565b6106b0565b5b6104fb576040517f08c379a00000000000000000000000000000000000000000000000000000000081526004016104f290612385565b60405180910390fd5b6105088585858585610857565b5050505050565b610551828260016040518060400160405280600481526020017f3078303000000000000000000000000000000000000000000000000000000000815250610b79565b5050565b6060815183511461059b576040517f08c379a000000000000000000000000000000000000000000000000000000000815260040161059290612417565b60405180910390fd5b6000835167ffffffffffffffff8111156105b8576105b7611afe565b5b6040519080825280602002602001820160405280156105e65781602001602082028036833780820191505090505b50905060005b84518110156106635761063385828151811061060b5761060a612437565b5b602002602001015185838151811061062657610625612437565b5b602002602001015161021e565b82828151811061064657610645612437565b5b6020026020010181815250508061065c90612495565b90506105ec565b508091505092915050565b80600360008481526020019081526020016000209080519060200190610695929190611729565b505050565b6106ac6106a561084f565b8383610ded565b5050565b6000600160008473ffffffffffffffffffffffffffffffffffffffff1673ffffffffffffffffffffffffffffffffffffffff16815260200190815260200160002060008373ffffffffffffffffffffffffffffffffffffffff1673ffffffffffffffffffffffffffffffffffffffff16815260200190815260200160002060009054906101000a900460ff16905092915050565b61074c61084f565b73ffffffffffffffffffffffffffffffffffffffff168573ffffffffffffffffffffffffffffffffffffffff16148061079257506107918561078c61084f565b6106b0565b5b6107d1576040517f08c379a00000000000000000000000000000000000000000000000000000000081526004016107c890612550565b60405180910390fd5b6107de8585858585610f5a565b5050505050565b60007f01ffc9a7000000000000000000000000000000000000000000000000000000007bffffffffffffffffffffffffffffffffffffffffffffffffffffffff1916827bffffffffffffffffffffffffffffffffffffffffffffffffffffffff1916149050919050565b600033905090565b815183511461089b576040517f08c379a0000000000000000000000000000000000000000000000000000000008152600401610892906125e2565b60405180910390fd5b600073ffffffffffffffffffffffffffffffffffffffff168473ffffffffffffffffffffffffffffffffffffffff16141561090b576040517f08c379a000000000000000000000000000000000000000000000000000000000815260040161090290612674565b60405180910390fd5b600061091561084f565b905060006109278287898888886111ea565b9050610932816112cb565b60005b8551811015610ae357600086828151811061095357610952612437565b5b60200260200101519050600086838151811061097257610971612437565b5b60200260200101519050600080600084815260200190815260200160002060008c73ffffffffffffffffffffffffffffffffffffffff1673ffffffffffffffffffffffffffffffffffffffff16815260200190815260200160002054905081811015610a13576040517f08c379a0000000000000000000000000000000000000000000000000000000008152600401610a0a90612706565b60405180910390fd5b81810360008085815260200190815260200160002060008d73ffffffffffffffffffffffffffffffffffffffff1673ffffffffffffffffffffffffffffffffffffffff168152602001908152602001600020819055508160008085815260200190815260200160002060008c73ffffffffffffffffffffffffffffffffffffffff1673ffffffffffffffffffffffffffffffffffffffff1681526020019081526020016000206000828254610ac89190612726565b9250508190555050505080610adc90612495565b9050610935565b508573ffffffffffffffffffffffffffffffffffffffff168773ffffffffffffffffffffffffffffffffffffffff168373ffffffffffffffffffffffffffffffffffffffff167f4a39dc06d4c0dbc64b70af90fd698a233a518aa5d07e595d983b8c0526c8f7fb8888604051610b5a92919061277c565b60405180910390a4610b708288888888886112ce565b50505050505050565b600073ffffffffffffffffffffffffffffffffffffffff168473ffffffffffffffffffffffffffffffffffffffff161415610be9576040517f08c379a0000000000000000000000000000000000000000000000000000000008152600401610be090612825565b60405180910390fd5b6000610bf361084f565b90506000600167ffffffffffffffff811115610c1257610c11611afe565b5b604051908082528060200260200182016040528015610c405781602001602082028036833780820191505090505b5090506000600167ffffffffffffffff811115610c6057610c5f611afe565b5b604051908082528060200260200182016040528015610c8e5781602001602082028036833780820191505090505b5090508582600081518110610ca657610ca5612437565b5b6020026020010181815250508481600081518110610cc757610cc6612437565b5b6020026020010181815250506000610ce48489600086868a6111ea565b9050610cef816112cb565b8560008089815260200190815260200160002060008a73ffffffffffffffffffffffffffffffffffffffff1673ffffffffffffffffffffffffffffffffffffffff1681526020019081526020016000206000828254610d4e9190612726565b925050819055508773ffffffffffffffffffffffffffffffffffffffff16600073ffffffffffffffffffffffffffffffffffffffff168573ffffffffffffffffffffffffffffffffffffffff167fc3d58168c5ae7397731d063d5bbf3d657854427343f4c083240f7aacaa2d0f628a8a604051610dcc929190612845565b60405180910390a4610de38460008a8a8a8a6114b5565b5050505050505050565b8173ffffffffffffffffffffffffffffffffffffffff168373ffffffffffffffffffffffffffffffffffffffff161415610e5c576040517f08c379a0000000000000000000000000000000000000000000000000000000008152600401610e53906128e0565b60405180910390fd5b80600160008573ffffffffffffffffffffffffffffffffffffffff1673ffffffffffffffffffffffffffffffffffffffff16815260200190815260200160002060008473ffffffffffffffffffffffffffffffffffffffff1673ffffffffffffffffffffffffffffffffffffffff16815260200190815260200160002060006101000a81548160ff0219169083151502179055508173ffffffffffffffffffffffffffffffffffffffff168373ffffffffffffffffffffffffffffffffffffffff167f17307eab39ab6107e8899845ad3d59bd9653f200f220920489ca2b5937696c3183604051610f4d91906119f6565b60405180910390a3505050565b600073ffffffffffffffffffffffffffffffffffffffff168473ffffffffffffffffffffffffffffffffffffffff161415610fca576040517f08c379a0000000000000000000000000000000000000000000000000000000008152600401610fc190612674565b60405180910390fd5b6000610fd461084f565b90506000610ff6828789610fe78961169c565b610ff08961169c565b886111ea565b9050611001816112cb565b600080600087815260200190815260200160002060008973ffffffffffffffffffffffffffffffffffffffff1673ffffffffffffffffffffffffffffffffffffffff16815260200190815260200160002054905084811015611098576040517f08c379a000000000000000000000000000000000000000000000000000000000815260040161108f90612706565b60405180910390fd5b84810360008088815260200190815260200160002060008a73ffffffffffffffffffffffffffffffffffffffff1673ffffffffffffffffffffffffffffffffffffffff168152602001908152602001600020819055508460008088815260200190815260200160002060008973ffffffffffffffffffffffffffffffffffffffff1673ffffffffffffffffffffffffffffffffffffffff168152602001908152602001600020600082825461114d9190612726565b925050819055508673ffffffffffffffffffffffffffffffffffffffff168873ffffffffffffffffffffffffffffffffffffffff168473ffffffffffffffffffffffffffffffffffffffff167fc3d58168c5ae7397731d063d5bbf3d657854427343f4c083240f7aacaa2d0f6289896040516111ca929190612845565b60405180910390a46111e08389898989896114b5565b5050505050505050565b6111f26117af565b6111fa6117af565b87816000019073ffffffffffffffffffffffffffffffffffffffff16908173ffffffffffffffffffffffffffffffffffffffff168152505085816020019073ffffffffffffffffffffffffffffffffffffffff16908173ffffffffffffffffffffffffffffffffffffffff168152505086816040019073ffffffffffffffffffffffffffffffffffffffff16908173ffffffffffffffffffffffffffffffffffffffff1681525050848160600181905250838160800181905250828160a00181905250809150509695505050505050565b50565b6112ed8473ffffffffffffffffffffffffffffffffffffffff16611716565b156114ad578373ffffffffffffffffffffffffffffffffffffffff1663bc197c8187878686866040518663ffffffff1660e01b8152600401611333959493929190612964565b602060405180830381600087803b15801561134d57600080fd5b505af192505050801561137e57506040513d601f19601f8201168201806040525081019061137b91906129e1565b60015b6114245761138a612a1b565b806308c379a014156113e7575061139f612a3d565b806113aa57506113e9565b806040517f08c379a00000000000000000000000000000000000000000000000000000000081526004016113de9190611ad7565b60405180910390fd5b505b6040517f08c379a000000000000000000000000000000000000000000000000000000000815260040161141b90612b45565b60405180910390fd5b63bc197c8160e01b7bffffffffffffffffffffffffffffffffffffffffffffffffffffffff1916817bffffffffffffffffffffffffffffffffffffffffffffffffffffffff1916146114ab576040517f08c379a00000000000000000000000000000000000000000000000000000000081526004016114a290612bd7565b60405180910390fd5b505b505050505050565b6114d48473ffffffffffffffffffffffffffffffffffffffff16611716565b15611694578373ffffffffffffffffffffffffffffffffffffffff1663f23a6e6187878686866040518663ffffffff1660e01b815260040161151a959493929190612bf7565b602060405180830381600087803b15801561153457600080fd5b505af192505050801561156557506040513d601f19601f8201168201806040525081019061156291906129e1565b60015b61160b57611571612a1b565b806308c379a014156115ce5750611586612a3d565b8061159157506115d0565b806040517f08c379a00000000000000000000000000000000000000000000000000000000081526004016115c59190611ad7565b60405180910390fd5b505b6040517f08c379a000000000000000000000000000000000000000000000000000000000815260040161160290612b45565b60405180910390fd5b63f23a6e6160e01b7bffffffffffffffffffffffffffffffffffffffffffffffffffffffff1916817bffffffffffffffffffffffffffffffffffffffffffffffffffffffff191614611692576040517f08c379a000000000000000000000000000000000000000000000000000000000815260040161168990612bd7565b60405180910390fd5b505b505050505050565b60606000600167ffffffffffffffff8111156116bb576116ba611afe565b5b6040519080825280602002602001820160405280156116e95781602001602082028036833780820191505090505b509050828160008151811061170157611700612437565b5b60200260200101818152505080915050919050565b600080823b905060008111915050919050565b828054611735906122e1565b90600052602060002090601f016020900481019282611757576000855561179e565b82601f1061177057805160ff191683800117855561179e565b8280016001018555821561179e579182015b8281111561179d578251825591602001919060010190611782565b5b5090506117ab9190611827565b5090565b6040518060c00160405280600073ffffffffffffffffffffffffffffffffffffffff168152602001600073ffffffffffffffffffffffffffffffffffffffff168152602001600073ffffffffffffffffffffffffffffffffffffffff1681526020016060815260200160608152602001606081525090565b5b80821115611840576000816000905550600101611828565b5090565b6000604051905090565b600080fd5b600080fd5b600073ffffffffffffffffffffffffffffffffffffffff82169050919050565b600061188382611858565b9050919050565b61189381611878565b811461189e57600080fd5b50565b6000813590506118b08161188a565b92915050565b6000819050919050565b6118c9816118b6565b81146118d457600080fd5b50565b6000813590506118e6816118c0565b92915050565b600080604083850312156119035761190261184e565b5b6000611911858286016118a1565b9250506020611922858286016118d7565b9150509250929050565b611935816118b6565b82525050565b6000602082019050611950600083018461192c565b92915050565b60007fffffffff0000000000000000000000000000000000000000000000000000000082169050919050565b61198b81611956565b811461199657600080fd5b50565b6000813590506119a881611982565b92915050565b6000602082840312156119c4576119c361184e565b5b60006119d284828501611999565b91505092915050565b60008115159050919050565b6119f0816119db565b82525050565b6000602082019050611a0b60008301846119e7565b92915050565b600060208284031215611a2757611a2661184e565b5b6000611a35848285016118d7565b91505092915050565b600081519050919050565b600082825260208201905092915050565b60005b83811015611a78578082015181840152602081019050611a5d565b83811115611a87576000848401525b50505050565b6000601f19601f8301169050919050565b6000611aa982611a3e565b611ab38185611a49565b9350611ac3818560208601611a5a565b611acc81611a8d565b840191505092915050565b60006020820190508181036000830152611af18184611a9e565b905092915050565b600080fd5b7f4e487b7100000000000000000000000000000000000000000000000000000000600052604160045260246000fd5b611b3682611a8d565b810181811067ffffffffffffffff82111715611b5557611b54611afe565b5b80604052505050565b6000611b68611844565b9050611b748282611b2d565b919050565b600067ffffffffffffffff821115611b9457611b93611afe565b5b602082029050602081019050919050565b600080fd5b6000611bbd611bb884611b79565b611b5e565b90508083825260208201905060208402830185811115611be057611bdf611ba5565b5b835b81811015611c095780611bf588826118d7565b845260208401935050602081019050611be2565b5050509392505050565b600082601f830112611c2857611c27611af9565b5b8135611c38848260208601611baa565b91505092915050565b600080fd5b600067ffffffffffffffff821115611c6157611c60611afe565b5b611c6a82611a8d565b9050602081019050919050565b82818337600083830152505050565b6000611c99611c9484611c46565b611b5e565b905082815260208101848484011115611cb557611cb4611c41565b5b611cc0848285611c77565b509392505050565b600082601f830112611cdd57611cdc611af9565b5b8135611ced848260208601611c86565b91505092915050565b600080600080600060a08688031215611d1257611d1161184e565b5b6000611d20888289016118a1565b9550506020611d31888289016118a1565b945050604086013567ffffffffffffffff811115611d5257611d51611853565b5b611d5e88828901611c13565b935050606086013567ffffffffffffffff811115611d7f57611d7e611853565b5b611d8b88828901611c13565b925050608086013567ffffffffffffffff811115611dac57611dab611853565b5b611db888828901611cc8565b9150509295509295909350565b600067ffffffffffffffff821115611de057611ddf611afe565b5b602082029050602081019050919050565b6000611e04611dff84611dc5565b611b5e565b90508083825260208201905060208402830185811115611e2757611e26611ba5565b5b835b81811015611e505780611e3c88826118a1565b845260208401935050602081019050611e29565b5050509392505050565b600082601f830112611e6f57611e6e611af9565b5b8135611e7f848260208601611df1565b91505092915050565b60008060408385031215611e9f57611e9e61184e565b5b600083013567ffffffffffffffff811115611ebd57611ebc611853565b5b611ec985828601611e5a565b925050602083013567ffffffffffffffff811115611eea57611ee9611853565b5b611ef685828601611c13565b9150509250929050565b600081519050919050565b600082825260208201905092915050565b6000819050602082019050919050565b611f35816118b6565b82525050565b6000611f478383611f2c565b60208301905092915050565b6000602082019050919050565b6000611f6b82611f00565b611f758185611f0b565b9350611f8083611f1c565b8060005b83811015611fb1578151611f988882611f3b565b9750611fa383611f53565b925050600181019050611f84565b5085935050505092915050565b60006020820190508181036000830152611fd88184611f60565b905092915050565b600067ffffffffffffffff821115611ffb57611ffa611afe565b5b61200482611a8d565b9050602081019050919050565b600061202461201f84611fe0565b611b5e565b9050828152602081018484840111156120405761203f611c41565b5b61204b848285611c77565b509392505050565b600082601f83011261206857612067611af9565b5b8135612078848260208601612011565b91505092915050565b600080604083850312156120985761209761184e565b5b60006120a6858286016118d7565b925050602083013567ffffffffffffffff8111156120c7576120c6611853565b5b6120d385828601612053565b9150509250929050565b6120e6816119db565b81146120f157600080fd5b50565b600081359050612103816120dd565b92915050565b600080604083850312156121205761211f61184e565b5b600061212e858286016118a1565b925050602061213f858286016120f4565b9150509250929050565b600080604083850312156121605761215f61184e565b5b600061216e858286016118a1565b925050602061217f858286016118a1565b9150509250929050565b600080600080600060a086880312156121a5576121a461184e565b5b60006121b3888289016118a1565b95505060206121c4888289016118a1565b94505060406121d5888289016118d7565b93505060606121e6888289016118d7565b925050608086013567ffffffffffffffff81111561220757612206611853565b5b61221388828901611cc8565b9150509295509295909350565b7f455243313135353a2062616c616e636520717565727920666f7220746865207a60008201527f65726f2061646472657373000000000000000000000000000000000000000000602082015250565b600061227c602b83611a49565b915061228782612220565b604082019050919050565b600060208201905081810360008301526122ab8161226f565b9050919050565b7f4e487b7100000000000000000000000000000000000000000000000000000000600052602260045260246000fd5b600060028204905060018216806122f957607f821691505b6020821081141561230d5761230c6122b2565b5b50919050565b7f455243313135353a207472616e736665722063616c6c6572206973206e6f742060008201527f6f776e6572206e6f7220617070726f7665640000000000000000000000000000602082015250565b600061236f603283611a49565b915061237a82612313565b604082019050919050565b6000602082019050818103600083015261239e81612362565b9050919050565b7f455243313135353a206163636f756e747320616e6420696473206c656e67746860008201527f206d69736d617463680000000000000000000000000000000000000000000000602082015250565b6000612401602983611a49565b915061240c826123a5565b604082019050919050565b60006020820190508181036000830152612430816123f4565b9050919050565b7f4e487b7100000000000000000000000000000000000000000000000000000000600052603260045260246000fd5b7f4e487b7100000000000000000000000000000000000000000000000000000000600052601160045260246000fd5b60006124a0826118b6565b91507fffffffffffffffffffffffffffffffffffffffffffffffffffffffffffffffff8214156124d3576124d2612466565b5b600182019050919050565b7f455243313135353a2063616c6c6572206973206e6f74206f776e6572206e6f7260008201527f20617070726f7665640000000000000000000000000000000000000000000000602082015250565b600061253a602983611a49565b9150612545826124de565b604082019050919050565b600060208201905081810360008301526125698161252d565b9050919050565b7f455243313135353a2069647320616e6420616d6f756e7473206c656e6774682060008201527f6d69736d61746368000000000000000000000000000000000000000000000000602082015250565b60006125cc602883611a49565b91506125d782612570565b604082019050919050565b600060208201905081810360008301526125fb816125bf565b9050919050565b7f455243313135353a207472616e7366657220746f20746865207a65726f20616460008201527f6472657373000000000000000000000000000000000000000000000000000000602082015250565b600061265e602583611a49565b915061266982612602565b604082019050919050565b6000602082019050818103600083015261268d81612651565b9050919050565b7f455243313135353a20696e73756666696369656e742062616c616e636520666f60008201527f72207472616e7366657200000000000000000000000000000000000000000000602082015250565b60006126f0602a83611a49565b91506126fb82612694565b604082019050919050565b6000602082019050818103600083015261271f816126e3565b9050919050565b6000612731826118b6565b915061273c836118b6565b9250827fffffffffffffffffffffffffffffffffffffffffffffffffffffffffffffffff0382111561277157612770612466565b5b828201905092915050565b600060408201905081810360008301526127968185611f60565b905081810360208301526127aa8184611f60565b90509392505050565b7f455243313135353a206d696e7420746f20746865207a65726f2061646472657360008201527f7300000000000000000000000000000000000000000000000000000000000000602082015250565b600061280f602183611a49565b915061281a826127b3565b604082019050919050565b6000602082019050818103600083015261283e81612802565b9050919050565b600060408201905061285a600083018561192c565b612867602083018461192c565b9392505050565b7f455243313135353a2073657474696e6720617070726f76616c2073746174757360008201527f20666f722073656c660000000000000000000000000000000000000000000000602082015250565b60006128ca602983611a49565b91506128d58261286e565b604082019050919050565b600060208201905081810360008301526128f9816128bd565b9050919050565b61290981611878565b82525050565b600081519050919050565b600082825260208201905092915050565b60006129368261290f565b612940818561291a565b9350612950818560208601611a5a565b61295981611a8d565b840191505092915050565b600060a0820190506129796000830188612900565b6129866020830187612900565b81810360408301526129988186611f60565b905081810360608301526129ac8185611f60565b905081810360808301526129c0818461292b565b90509695505050505050565b6000815190506129db81611982565b92915050565b6000602082840312156129f7576129f661184e565b5b6000612a05848285016129cc565b91505092915050565b60008160e01c9050919050565b600060033d1115612a3a5760046000803e612a37600051612a0e565b90505b90565b600060443d1015612a4d57612ad0565b612a55611844565b60043d036004823e80513d602482011167ffffffffffffffff82111715612a7d575050612ad0565b808201805167ffffffffffffffff811115612a9b5750505050612ad0565b80602083010160043d038501811115612ab8575050505050612ad0565b612ac782602001850186611b2d565b82955050505050505b90565b7f455243313135353a207472616e7366657220746f206e6f6e204552433131353560008201527f526563656976657220696d706c656d656e746572000000000000000000000000602082015250565b6000612b2f603483611a49565b9150612b3a82612ad3565b604082019050919050565b60006020820190508181036000830152612b5e81612b22565b9050919050565b7f455243313135353a204552433131353552656365697665722072656a6563746560008201527f6420746f6b656e73000000000000000000000000000000000000000000000000602082015250565b6000612bc1602883611a49565b9150612bcc82612b65565b604082019050919050565b60006020820190508181036000830152612bf081612bb4565b9050919050565b600060a082019050612c0c6000830188612900565b612c196020830187612900565b612c26604083018661192c565b612c33606083018561192c565b8181036080830152612c45818461292b565b9050969550505050505056fea2646970667358221220b567068e88a89923e264fe6cd4102017bea873aecc0157cd4c28c0f6853980fc64736f6c63430008090033",
  "linkReferences": {},
  "deployedLinkReferences": {}
}